{
  "_format": "hh-sol-artifact-1",
  "contractName": "GenesisPretzel",
  "sourceName": "contracts/GenesisPretzels/GenesisPretzel.sol",
  "abi": [
    {
      "inputs": [],
      "stateMutability": "nonpayable",
      "type": "constructor"
    },
    {
      "inputs": [],
      "name": "ApprovalCallerNotOwnerNorApproved",
      "type": "error"
    },
    {
      "inputs": [],
      "name": "ApprovalQueryForNonexistentToken",
      "type": "error"
    },
    {
      "inputs": [],
      "name": "ApprovalToCurrentOwner",
      "type": "error"
    },
    {
      "inputs": [],
      "name": "ApproveToCaller",
      "type": "error"
    },
    {
      "inputs": [],
      "name": "BalanceQueryForZeroAddress",
      "type": "error"
    },
    {
      "inputs": [],
      "name": "MintToZeroAddress",
      "type": "error"
    },
    {
      "inputs": [],
      "name": "MintZeroQuantity",
      "type": "error"
    },
    {
      "inputs": [],
      "name": "OwnerQueryForNonexistentToken",
      "type": "error"
    },
    {
      "inputs": [],
      "name": "TransferCallerNotOwnerNorApproved",
      "type": "error"
    },
    {
      "inputs": [],
      "name": "TransferFromIncorrectOwner",
      "type": "error"
    },
    {
      "inputs": [],
      "name": "TransferToNonERC721ReceiverImplementer",
      "type": "error"
    },
    {
      "inputs": [],
      "name": "TransferToZeroAddress",
      "type": "error"
    },
    {
      "inputs": [],
      "name": "URIQueryForNonexistentToken",
      "type": "error"
    },
    {
      "anonymous": false,
      "inputs": [
        {
          "indexed": true,
          "internalType": "address",
          "name": "owner",
          "type": "address"
        },
        {
          "indexed": true,
          "internalType": "address",
          "name": "approved",
          "type": "address"
        },
        {
          "indexed": true,
          "internalType": "uint256",
          "name": "tokenId",
          "type": "uint256"
        }
      ],
      "name": "Approval",
      "type": "event"
    },
    {
      "anonymous": false,
      "inputs": [
        {
          "indexed": true,
          "internalType": "address",
          "name": "owner",
          "type": "address"
        },
        {
          "indexed": true,
          "internalType": "address",
          "name": "operator",
          "type": "address"
        },
        {
          "indexed": false,
          "internalType": "bool",
          "name": "approved",
          "type": "bool"
        }
      ],
      "name": "ApprovalForAll",
      "type": "event"
    },
    {
      "anonymous": false,
      "inputs": [
        {
          "indexed": true,
          "internalType": "address",
          "name": "previousOwner",
          "type": "address"
        },
        {
          "indexed": true,
          "internalType": "address",
          "name": "newOwner",
          "type": "address"
        }
      ],
      "name": "OwnershipTransferred",
      "type": "event"
    },
    {
      "anonymous": false,
      "inputs": [
        {
          "indexed": true,
          "internalType": "address",
          "name": "from",
          "type": "address"
        },
        {
          "indexed": true,
          "internalType": "address",
          "name": "to",
          "type": "address"
        },
        {
          "indexed": true,
          "internalType": "uint256",
          "name": "tokenId",
          "type": "uint256"
        }
      ],
      "name": "Transfer",
      "type": "event"
    },
    {
      "inputs": [],
      "name": "MAX_MINT_PER_TX",
      "outputs": [
        {
          "internalType": "uint256",
          "name": "",
          "type": "uint256"
        }
      ],
      "stateMutability": "view",
      "type": "function"
    },
    {
      "inputs": [],
      "name": "MAX_SUPPLY",
      "outputs": [
        {
          "internalType": "uint256",
          "name": "",
          "type": "uint256"
        }
      ],
      "stateMutability": "view",
      "type": "function"
    },
    {
      "inputs": [],
      "name": "PRICE_PER_MINT",
      "outputs": [
        {
          "internalType": "uint256",
          "name": "",
          "type": "uint256"
        }
      ],
      "stateMutability": "view",
      "type": "function"
    },
    {
      "inputs": [
        {
          "internalType": "address",
          "name": "to",
          "type": "address"
        },
        {
          "internalType": "uint256",
          "name": "tokenId",
          "type": "uint256"
        }
      ],
      "name": "approve",
      "outputs": [],
      "stateMutability": "nonpayable",
      "type": "function"
    },
    {
      "inputs": [
        {
          "internalType": "address",
          "name": "owner",
          "type": "address"
        }
      ],
      "name": "balanceOf",
      "outputs": [
        {
          "internalType": "uint256",
          "name": "",
          "type": "uint256"
        }
      ],
      "stateMutability": "view",
      "type": "function"
    },
    {
      "inputs": [
        {
          "internalType": "uint256",
          "name": "tokenId",
          "type": "uint256"
        }
      ],
      "name": "getApproved",
      "outputs": [
        {
          "internalType": "address",
          "name": "",
          "type": "address"
        }
      ],
      "stateMutability": "view",
      "type": "function"
    },
    {
      "inputs": [
        {
          "internalType": "address",
          "name": "owner",
          "type": "address"
        },
        {
          "internalType": "address",
          "name": "operator",
          "type": "address"
        }
      ],
      "name": "isApprovedForAll",
      "outputs": [
        {
          "internalType": "bool",
          "name": "",
          "type": "bool"
        }
      ],
      "stateMutability": "view",
      "type": "function"
    },
    {
      "inputs": [],
      "name": "metadataOffset",
      "outputs": [
        {
          "internalType": "uint256",
          "name": "",
          "type": "uint256"
        }
      ],
      "stateMutability": "view",
      "type": "function"
    },
    {
      "inputs": [
        {
          "internalType": "uint256",
          "name": "quantity",
          "type": "uint256"
        }
      ],
      "name": "mint",
      "outputs": [],
      "stateMutability": "payable",
      "type": "function"
    },
    {
      "inputs": [],
      "name": "name",
      "outputs": [
        {
          "internalType": "string",
          "name": "",
          "type": "string"
        }
      ],
      "stateMutability": "view",
      "type": "function"
    },
    {
      "inputs": [],
      "name": "owner",
      "outputs": [
        {
          "internalType": "address",
          "name": "",
          "type": "address"
        }
      ],
      "stateMutability": "view",
      "type": "function"
    },
    {
      "inputs": [
        {
          "internalType": "uint256",
          "name": "tokenId",
          "type": "uint256"
        }
      ],
      "name": "ownerOf",
      "outputs": [
        {
          "internalType": "address",
          "name": "",
          "type": "address"
        }
      ],
      "stateMutability": "view",
      "type": "function"
    },
    {
      "inputs": [],
      "name": "renounceOwnership",
      "outputs": [],
      "stateMutability": "nonpayable",
      "type": "function"
    },
    {
      "inputs": [],
      "name": "reveal",
      "outputs": [],
      "stateMutability": "nonpayable",
      "type": "function"
    },
    {
      "inputs": [],
      "name": "revealed",
      "outputs": [
        {
          "internalType": "bool",
          "name": "",
          "type": "bool"
        }
      ],
      "stateMutability": "view",
      "type": "function"
    },
    {
      "inputs": [
        {
          "internalType": "address",
          "name": "from",
          "type": "address"
        },
        {
          "internalType": "address",
          "name": "to",
          "type": "address"
        },
        {
          "internalType": "uint256",
          "name": "tokenId",
          "type": "uint256"
        }
      ],
      "name": "safeTransferFrom",
      "outputs": [],
      "stateMutability": "nonpayable",
      "type": "function"
    },
    {
      "inputs": [
        {
          "internalType": "address",
          "name": "from",
          "type": "address"
        },
        {
          "internalType": "address",
          "name": "to",
          "type": "address"
        },
        {
          "internalType": "uint256",
          "name": "tokenId",
          "type": "uint256"
        },
        {
          "internalType": "bytes",
          "name": "_data",
          "type": "bytes"
        }
      ],
      "name": "safeTransferFrom",
      "outputs": [],
      "stateMutability": "nonpayable",
      "type": "function"
    },
    {
      "inputs": [
        {
          "internalType": "address",
          "name": "operator",
          "type": "address"
        },
        {
          "internalType": "bool",
          "name": "approved",
          "type": "bool"
        }
      ],
      "name": "setApprovalForAll",
      "outputs": [],
      "stateMutability": "nonpayable",
      "type": "function"
    },
    {
      "inputs": [
        {
          "internalType": "bytes4",
          "name": "interfaceId",
          "type": "bytes4"
        }
      ],
      "name": "supportsInterface",
      "outputs": [
        {
          "internalType": "bool",
          "name": "",
          "type": "bool"
        }
      ],
      "stateMutability": "view",
      "type": "function"
    },
    {
      "inputs": [],
      "name": "symbol",
      "outputs": [
        {
          "internalType": "string",
          "name": "",
          "type": "string"
        }
      ],
      "stateMutability": "view",
      "type": "function"
    },
    {
      "inputs": [
        {
          "internalType": "uint256",
          "name": "tokenId",
          "type": "uint256"
        }
      ],
      "name": "tokenToMetadataId",
      "outputs": [
        {
          "internalType": "uint256",
          "name": "",
          "type": "uint256"
        }
      ],
      "stateMutability": "view",
      "type": "function"
    },
    {
      "inputs": [
        {
          "internalType": "uint256",
          "name": "tokenId",
          "type": "uint256"
        }
      ],
      "name": "tokenURI",
      "outputs": [
        {
          "internalType": "string",
          "name": "",
          "type": "string"
        }
      ],
      "stateMutability": "view",
      "type": "function"
    },
    {
      "inputs": [],
      "name": "totalSupply",
      "outputs": [
        {
          "internalType": "uint256",
          "name": "",
          "type": "uint256"
        }
      ],
      "stateMutability": "view",
      "type": "function"
    },
    {
      "inputs": [
        {
          "internalType": "address",
          "name": "from",
          "type": "address"
        },
        {
          "internalType": "address",
          "name": "to",
          "type": "address"
        },
        {
          "internalType": "uint256",
          "name": "tokenId",
          "type": "uint256"
        }
      ],
      "name": "transferFrom",
      "outputs": [],
      "stateMutability": "nonpayable",
      "type": "function"
    },
    {
      "inputs": [
        {
          "internalType": "address",
          "name": "newOwner",
          "type": "address"
        }
      ],
      "name": "transferOwnership",
      "outputs": [],
      "stateMutability": "nonpayable",
      "type": "function"
    },
    {
      "inputs": [],
      "name": "withdraw",
      "outputs": [],
      "stateMutability": "nonpayable",
      "type": "function"
    }
  ],
  "bytecode": "0x60806040526008805460ff60a01b191690553480156200001e57600080fd5b50604080518082018252600e81526d11d95b995cda5cd41c995d1e995b60921b60208083019182528351808501909452600584526411d414969360da1b9084015281519192916200007291600291620000f2565b50805162000088906003906020840190620000f2565b505060008055506200009a33620000a0565b620001d5565b600880546001600160a01b038381166001600160a01b0319831681179093556040519116919082907f8be0079c531659141344cd1fd0a4f28419497f9722a3daafe3b4186f6b6457e090600090a35050565b828054620001009062000198565b90600052602060002090601f0160209004810192826200012457600085556200016f565b82601f106200013f57805160ff19168380011785556200016f565b828001600101855582156200016f579182015b828111156200016f57825182559160200191906001019062000152565b506200017d92915062000181565b5090565b5b808211156200017d576000815560010162000182565b600181811c90821680620001ad57607f821691505b60208210811415620001cf57634e487b7160e01b600052602260045260246000fd5b50919050565b611a0280620001e56000396000f3fe6080604052600436106101615760003560e01c806370a08231116100c1578063a0712d681161007a578063a0712d68146103af578063a22cb465146103c2578063a475b5dd146103e2578063b88d4fde146103f7578063c87b56dd14610417578063e985e9c514610437578063f2fde38b1461048057600080fd5b806370a082311461031f578063715018a61461033f57806386b8703b146103545780638da5cb5b146103705780638ecad7211461038557806395d89b411461039a57600080fd5b806318160ddd1161011e57806318160ddd1461025b57806323b872dd1461027457806332cb6b0c146102945780633ccfd60b146102a957806342842e0e146102be57806351830227146102de5780636352211e146102ff57600080fd5b806301ffc9a71461016657806302dd66851461019b57806306fdde03146101c9578063081812fc146101eb578063095ea7b3146102235780630fdabb5a14610245575b600080fd5b34801561017257600080fd5b506101866101813660046114d2565b6104a0565b60405190151581526020015b60405180910390f35b3480156101a757600080fd5b506101bb6101b63660046114f6565b6104f2565b604051908152602001610192565b3480156101d557600080fd5b506101de61056e565b6040516101929190611567565b3480156101f757600080fd5b5061020b6102063660046114f6565b610600565b6040516001600160a01b039091168152602001610192565b34801561022f57600080fd5b5061024361023e366004611596565b610644565b005b34801561025157600080fd5b506101bb60095481565b34801561026757600080fd5b50600154600054036101bb565b34801561028057600080fd5b5061024361028f3660046115c0565b6106cb565b3480156102a057600080fd5b506101bb601e81565b3480156102b557600080fd5b506102436106d6565b3480156102ca57600080fd5b506102436102d93660046115c0565b610734565b3480156102ea57600080fd5b5060085461018690600160a01b900460ff1681565b34801561030b57600080fd5b5061020b61031a3660046114f6565b61074f565b34801561032b57600080fd5b506101bb61033a3660046115fc565b610761565b34801561034b57600080fd5b506102436107af565b34801561036057600080fd5b506101bb67016345785d8a000081565b34801561037c57600080fd5b5061020b6107ea565b34801561039157600080fd5b506101bb600581565b3480156103a657600080fd5b506101de6107f9565b6102436103bd3660046114f6565b610808565b3480156103ce57600080fd5b506102436103dd366004611617565b610956565b3480156103ee57600080fd5b506102436109ec565b34801561040357600080fd5b50610243610412366004611669565b610a8d565b34801561042357600080fd5b506101de6104323660046114f6565b610ad7565b34801561044357600080fd5b50610186610452366004611744565b6001600160a01b03918216600090815260076020908152604080832093909416825291909152205460ff1690565b34801561048c57600080fd5b5061024361049b3660046115fc565b610b83565b60006001600160e01b031982166380ac58cd60e01b14806104d157506001600160e01b03198216635b5e139f60e01b145b806104ec57506301ffc9a760e01b6001600160e01b03198316145b92915050565b600854600090600160a01b900460ff166105535760405162461bcd60e51b815260206004820181905260248201527f4d65746164617461206d7573742062652072657665616c65642066697273742e60448201526064015b60405180910390fd5b601e60095483018161056757610567611777565b0692915050565b60606002805461057d9061178d565b80601f01602080910402602001604051908101604052809291908181526020018280546105a99061178d565b80156105f65780601f106105cb576101008083540402835291602001916105f6565b820191906000526020600020905b8154815290600101906020018083116105d957829003601f168201915b5050505050905090565b600061060b82610c20565b610628576040516333d1c03960e21b815260040160405180910390fd5b506000908152600660205260409020546001600160a01b031690565b600061064f8261074f565b9050806001600160a01b0316836001600160a01b031614156106845760405163250fdee360e21b815260040160405180910390fd5b336001600160a01b038216146106bb5761069e8133610452565b6106bb576040516367d9dca160e11b815260040160405180910390fd5b6106c6838383610c4b565b505050565b6106c6838383610ca7565b336106df6107ea565b6001600160a01b0316146107055760405162461bcd60e51b815260040161054a906117c8565b60405133904780156108fc02916000818181858888f19350505050158015610731573d6000803e3d6000fd5b50565b6106c683838360405180602001604052806000815250610a8d565b600061075a82610e82565b5192915050565b60006001600160a01b03821661078a576040516323d3ad8160e21b815260040160405180910390fd5b506001600160a01b03166000908152600560205260409020546001600160401b031690565b336107b86107ea565b6001600160a01b0316146107de5760405162461bcd60e51b815260040161054a906117c8565b6107e86000610f9c565b565b6008546001600160a01b031690565b60606003805461057d9061178d565b601e8161081460005490565b61081e9190611813565b111561086c5760405162461bcd60e51b815260206004820152601f60248201527f547279696e6720746f206d696e7420746f6f206d616e7920746f6b656e732e00604482015260640161054a565b60058111156108d85760405162461bcd60e51b815260206004820152603260248201527f547279696e6720746f206d696e7420746f6f206d616e7920746f6b656e732069604482015271371037b732903a3930b739b0b1ba34b7b71760711b606482015260840161054a565b6108ea67016345785d8a00008261182b565b34101561094c5760405162461bcd60e51b815260206004820152602a60248201527f4e6f7420656e6f7567682065746865722073656e6420746f20636f6d706c65746044820152696520707572636861736560b01b606482015260840161054a565b6107313382610fee565b6001600160a01b0382163314156109805760405163b06307db60e01b815260040160405180910390fd5b3360008181526007602090815260408083206001600160a01b03871680855290835292819020805460ff191686151590811790915590519081529192917f17307eab39ab6107e8899845ad3d59bd9653f200f220920489ca2b5937696c31910160405180910390a35050565b336109f56107ea565b6001600160a01b031614610a1b5760405162461bcd60e51b815260040161054a906117c8565b600854600160a01b900460ff1615610a6d5760405162461bcd60e51b815260206004820152601560248201527421b0b71037b7363c903932bb32b0b61037b731b29760591b604482015260640161054a565b6008805460ff60a01b1916600160a01b179055610a8861100c565b600955565b610a98848484610ca7565b6001600160a01b0383163b15610ad157610ab4848484846110ee565b610ad1576040516368d2bf6b60e11b815260040160405180910390fd5b50505050565b6060610ae282610c20565b610aff57604051630a14c4b560e41b815260040160405180910390fd5b600854600160a01b900460ff16610b59576040518060400160405280600a8152602001691d5b9c995d99585b195960b21b815250604051602001610b43919061184a565b6040516020818303038152906040529050919050565b610b616111e6565b610b72610b6d846104f2565b61122d565b604051602001610b43929190611879565b33610b8c6107ea565b6001600160a01b031614610bb25760405162461bcd60e51b815260040161054a906117c8565b6001600160a01b038116610c175760405162461bcd60e51b815260206004820152602660248201527f4f776e61626c653a206e6577206f776e657220697320746865207a65726f206160448201526564647265737360d01b606482015260840161054a565b61073181610f9c565b60008054821080156104ec575050600090815260046020526040902054600160e01b900460ff161590565b60008281526006602052604080822080546001600160a01b0319166001600160a01b0387811691821790925591518593918516917f8c5be1e5ebec7d5bd14f71427d1e84f3dd0314c0f7b2291e5b200ac8c7c3b92591a4505050565b6000610cb282610e82565b9050836001600160a01b031681600001516001600160a01b031614610ce95760405162a1148160e81b815260040160405180910390fd5b6000336001600160a01b0386161480610d075750610d078533610452565b80610d22575033610d1784610600565b6001600160a01b0316145b905080610d4257604051632ce44b5f60e11b815260040160405180910390fd5b6001600160a01b038416610d6957604051633a954ecd60e21b815260040160405180910390fd5b610d7560008487610c4b565b6001600160a01b038581166000908152600560209081526040808320805467ffffffffffffffff198082166001600160401b0392831660001901831617909255898616808652838620805493841693831660019081018416949094179055898652600490945282852080546001600160e01b031916909417600160a01b42909216919091021783558701808452922080549193909116610e49576000548214610e4957805460208601516001600160401b0316600160a01b026001600160e01b03199091166001600160a01b038a16171781555b50505082846001600160a01b0316866001600160a01b03166000805160206119ad83398151915260405160405180910390a45050505050565b604080516060810182526000808252602082018190529181019190915281600054811015610f8357600081815260046020908152604091829020825160608101845290546001600160a01b0381168252600160a01b81046001600160401b031692820192909252600160e01b90910460ff16151591810182905290610f815780516001600160a01b031615610f18579392505050565b5060001901600081815260046020908152604091829020825160608101845290546001600160a01b038116808352600160a01b82046001600160401b031693830193909352600160e01b900460ff1615159281019290925215610f7c579392505050565b610f18565b505b604051636f96cda160e11b815260040160405180910390fd5b600880546001600160a01b038381166001600160a01b0319831681179093556040519116919082907f8be0079c531659141344cd1fd0a4f28419497f9722a3daafe3b4186f6b6457e090600090a35050565b61100882826040518060200160405280600081525061132a565b5050565b60003233146110695760405162461bcd60e51b8152602060048201526024808201527f436f6e74726163747320617265206e6f7420616c6c6f77656420746f2072657660448201526332b0b61760e11b606482015260840161054a565b60003a43424461107a6001846118a8565b403061108560005490565b6040805160208101989098528701959095526060860193909352608085019190915260a08401526001600160a01b031660c083015260e08201526101000160408051601f19818403018152919052805160209091012090506110e8601e826118bf565b91505090565b604051630a85bd0160e11b81526000906001600160a01b0385169063150b7a02906111239033908990889088906004016118d3565b602060405180830381600087803b15801561113d57600080fd5b505af192505050801561116d575060408051601f3d908101601f1916820190925261116a91810190611910565b60015b6111c8573d80801561119b576040519150601f19603f3d011682016040523d82523d6000602084013e6111a0565b606091505b5080516111c0576040516368d2bf6b60e11b815260040160405180910390fd5b805181602001fd5b6001600160e01b031916630a85bd0160e11b1490505b949350505050565b6060604051806040016040528060088152602001676d6574616461746160c01b815250604051602001611219919061192d565b604051602081830303815290604052905090565b6060816112515750506040805180820190915260018152600360fc1b602082015290565b8160005b811561127b578061126581611967565b91506112749050600a83611982565b9150611255565b6000816001600160401b0381111561129557611295611653565b6040519080825280601f01601f1916602001820160405280156112bf576020820181803683370190505b5090505b84156111de576112d46001836118a8565b91506112e1600a866118bf565b6112ec906030611813565b60f81b81838151811061130157611301611996565b60200101906001600160f81b031916908160001a905350611323600a86611982565b94506112c3565b6000546001600160a01b03841661135357604051622e076360e81b815260040160405180910390fd5b826113715760405163b562e8dd60e01b815260040160405180910390fd5b6001600160a01b038416600081815260056020908152604080832080546001600160801b031981166001600160401b038083168b018116918217600160401b67ffffffffffffffff1990941690921783900481168b01811690920217909155858452600490925290912080546001600160e01b0319168317600160a01b42909316929092029190911790558190818501903b15611479575b60405182906001600160a01b038816906000906000805160206119ad833981519152908290a461144260008784806001019550876110ee565b61145f576040516368d2bf6b60e11b815260040160405180910390fd5b80821061140957826000541461147457600080fd5b6114ac565b5b6040516001830192906001600160a01b038816906000906000805160206119ad833981519152908290a480821061147a575b506000908155610ad19085838684565b6001600160e01b03198116811461073157600080fd5b6000602082840312156114e457600080fd5b81356114ef816114bc565b9392505050565b60006020828403121561150857600080fd5b5035919050565b60005b8381101561152a578181015183820152602001611512565b83811115610ad15750506000910152565b6000815180845261155381602086016020860161150f565b601f01601f19169290920160200192915050565b6020815260006114ef602083018461153b565b80356001600160a01b038116811461159157600080fd5b919050565b600080604083850312156115a957600080fd5b6115b28361157a565b946020939093013593505050565b6000806000606084860312156115d557600080fd5b6115de8461157a565b92506115ec6020850161157a565b9150604084013590509250925092565b60006020828403121561160e57600080fd5b6114ef8261157a565b6000806040838503121561162a57600080fd5b6116338361157a565b91506020830135801515811461164857600080fd5b809150509250929050565b634e487b7160e01b600052604160045260246000fd5b6000806000806080858703121561167f57600080fd5b6116888561157a565b93506116966020860161157a565b92506040850135915060608501356001600160401b03808211156116b957600080fd5b818701915087601f8301126116cd57600080fd5b8135818111156116df576116df611653565b604051601f8201601f19908116603f0116810190838211818310171561170757611707611653565b816040528281528a602084870101111561172057600080fd5b82602086016020830137600060208483010152809550505050505092959194509250565b6000806040838503121561175757600080fd5b6117608361157a565b915061176e6020840161157a565b90509250929050565b634e487b7160e01b600052601260045260246000fd5b600181811c908216806117a157607f821691505b602082108114156117c257634e487b7160e01b600052602260045260246000fd5b50919050565b6020808252818101527f4f776e61626c653a2063616c6c6572206973206e6f7420746865206f776e6572604082015260600190565b634e487b7160e01b600052601160045260246000fd5b60008219821115611826576118266117fd565b500190565b6000816000190483118215151615611845576118456117fd565b500290565b66697066733a2f2f60c81b81526000825161186c81600785016020870161150f565b9190910160070192915050565b6000835161188b81846020880161150f565b83519083019061189f81836020880161150f565b01949350505050565b6000828210156118ba576118ba6117fd565b500390565b6000826118ce576118ce611777565b500690565b6001600160a01b03858116825284166020820152604081018390526080606082018190526000906119069083018461153b565b9695505050505050565b60006020828403121561192257600080fd5b81516114ef816114bc565b66697066733a2f2f60c81b81526000825161194f81600785016020870161150f565b602f60f81b6007939091019283015250600801919050565b600060001982141561197b5761197b6117fd565b5060010190565b60008261199157611991611777565b500490565b634e487b7160e01b600052603260045260246000fdfeddf252ad1be2c89b69c2b068fc378daa952ba7f163c4a11628f55a4df523b3efa2646970667358221220230d99efdf75d6d5d54b97d9273b3011af191cddbd4fc3b68da7aad0ed3164af64736f6c63430008090033",
  "linkReferences": {},
  "deployedLinkReferences": {}
}