{
  "_format": "hh-sol-artifact-1",
  "contractName": "SugarPretzel",
  "sourceName": "contracts/SugarPretzels/SugarPretzel.sol",
  "abi": [
    {
      "inputs": [
        {
          "internalType": "address",
          "name": "trustedForwarder",
          "type": "address"
        },
        {
          "internalType": "address",
          "name": "_link",
          "type": "address"
        },
        {
          "internalType": "address",
          "name": "_oracle",
          "type": "address"
        }
      ],
      "stateMutability": "nonpayable",
      "type": "constructor"
    },
    {
      "anonymous": false,
      "inputs": [
        {
          "indexed": true,
          "internalType": "address",
          "name": "owner",
          "type": "address"
        },
        {
          "indexed": true,
          "internalType": "address",
          "name": "approved",
          "type": "address"
        },
        {
          "indexed": true,
          "internalType": "uint256",
          "name": "tokenId",
          "type": "uint256"
        }
      ],
      "name": "Approval",
      "type": "event"
    },
    {
      "anonymous": false,
      "inputs": [
        {
          "indexed": true,
          "internalType": "address",
          "name": "owner",
          "type": "address"
        },
        {
          "indexed": true,
          "internalType": "address",
          "name": "operator",
          "type": "address"
        },
        {
          "indexed": false,
          "internalType": "bool",
          "name": "approved",
          "type": "bool"
        }
      ],
      "name": "ApprovalForAll",
      "type": "event"
    },
    {
      "anonymous": false,
      "inputs": [
        {
          "indexed": true,
          "internalType": "bytes32",
          "name": "id",
          "type": "bytes32"
        }
      ],
      "name": "ChainlinkCancelled",
      "type": "event"
    },
    {
      "anonymous": false,
      "inputs": [
        {
          "indexed": true,
          "internalType": "bytes32",
          "name": "id",
          "type": "bytes32"
        }
      ],
      "name": "ChainlinkFulfilled",
      "type": "event"
    },
    {
      "anonymous": false,
      "inputs": [
        {
          "indexed": true,
          "internalType": "bytes32",
          "name": "id",
          "type": "bytes32"
        }
      ],
      "name": "ChainlinkRequested",
      "type": "event"
    },
    {
      "anonymous": false,
      "inputs": [
        {
          "indexed": true,
          "internalType": "address",
          "name": "previousOwner",
          "type": "address"
        },
        {
          "indexed": true,
          "internalType": "address",
          "name": "newOwner",
          "type": "address"
        }
      ],
      "name": "OwnershipTransferred",
      "type": "event"
    },
    {
      "anonymous": false,
      "inputs": [
        {
          "indexed": true,
          "internalType": "address",
          "name": "from",
          "type": "address"
        },
        {
          "indexed": true,
          "internalType": "address",
          "name": "to",
          "type": "address"
        },
        {
          "indexed": true,
          "internalType": "uint256",
          "name": "tokenId",
          "type": "uint256"
        }
      ],
      "name": "Transfer",
      "type": "event"
    },
    {
      "inputs": [
        {
          "internalType": "address",
          "name": "to",
          "type": "address"
        },
        {
          "internalType": "uint256",
          "name": "tokenId",
          "type": "uint256"
        }
      ],
      "name": "approve",
      "outputs": [],
      "stateMutability": "nonpayable",
      "type": "function"
    },
    {
      "inputs": [
        {
          "internalType": "address",
          "name": "owner",
          "type": "address"
        }
      ],
      "name": "balanceOf",
      "outputs": [
        {
          "internalType": "uint256",
          "name": "",
          "type": "uint256"
        }
      ],
      "stateMutability": "view",
      "type": "function"
    },
    {
      "inputs": [],
      "name": "baseURI",
      "outputs": [
        {
          "internalType": "string",
          "name": "",
          "type": "string"
        }
      ],
      "stateMutability": "view",
      "type": "function"
    },
    {
      "inputs": [],
      "name": "currentConditions",
      "outputs": [
        {
          "internalType": "uint256",
          "name": "timestamp",
          "type": "uint256"
        },
        {
          "internalType": "uint24",
          "name": "precipitationPast12Hours",
          "type": "uint24"
        },
        {
          "internalType": "uint24",
          "name": "precipitationPast24Hours",
          "type": "uint24"
        },
        {
          "internalType": "uint24",
          "name": "precipitationPastHour",
          "type": "uint24"
        },
        {
          "internalType": "uint24",
          "name": "pressure",
          "type": "uint24"
        },
        {
          "internalType": "int16",
          "name": "temperature",
          "type": "int16"
        },
        {
          "internalType": "uint16",
          "name": "windDirectionDegrees",
          "type": "uint16"
        },
        {
          "internalType": "uint16",
          "name": "windSpeed",
          "type": "uint16"
        },
        {
          "internalType": "uint8",
          "name": "precipitationType",
          "type": "uint8"
        },
        {
          "internalType": "uint8",
          "name": "relativeHumidity",
          "type": "uint8"
        },
        {
          "internalType": "uint8",
          "name": "uvIndex",
          "type": "uint8"
        },
        {
          "internalType": "uint8",
          "name": "weatherIcon",
          "type": "uint8"
        }
      ],
      "stateMutability": "view",
      "type": "function"
    },
    {
      "inputs": [
        {
          "internalType": "bytes32",
          "name": "_requestId",
          "type": "bytes32"
        },
        {
          "internalType": "bool",
          "name": "_locationFound",
          "type": "bool"
        },
        {
          "internalType": "bytes",
          "name": "_locationResult",
          "type": "bytes"
        },
        {
          "internalType": "bytes",
          "name": "_currentConditionsResult",
          "type": "bytes"
        }
      ],
      "name": "fulfillLocationCurrentConditions",
      "outputs": [],
      "stateMutability": "nonpayable",
      "type": "function"
    },
    {
      "inputs": [
        {
          "internalType": "uint256",
          "name": "tokenId",
          "type": "uint256"
        }
      ],
      "name": "getApproved",
      "outputs": [
        {
          "internalType": "address",
          "name": "",
          "type": "address"
        }
      ],
      "stateMutability": "view",
      "type": "function"
    },
    {
      "inputs": [],
      "name": "getOracleAddress",
      "outputs": [
        {
          "internalType": "address",
          "name": "",
          "type": "address"
        }
      ],
      "stateMutability": "view",
      "type": "function"
    },
    {
      "inputs": [
        {
          "internalType": "address",
          "name": "",
          "type": "address"
        }
      ],
      "name": "hasMintedGasless",
      "outputs": [
        {
          "internalType": "bool",
          "name": "",
          "type": "bool"
        }
      ],
      "stateMutability": "view",
      "type": "function"
    },
    {
      "inputs": [],
      "name": "hausDerKunstLocation",
      "outputs": [
        {
          "internalType": "string",
          "name": "lat",
          "type": "string"
        },
        {
          "internalType": "string",
          "name": "long",
          "type": "string"
        }
      ],
      "stateMutability": "view",
      "type": "function"
    },
    {
      "inputs": [
        {
          "internalType": "address",
          "name": "owner",
          "type": "address"
        },
        {
          "internalType": "address",
          "name": "operator",
          "type": "address"
        }
      ],
      "name": "isApprovedForAll",
      "outputs": [
        {
          "internalType": "bool",
          "name": "",
          "type": "bool"
        }
      ],
      "stateMutability": "view",
      "type": "function"
    },
    {
      "inputs": [
        {
          "internalType": "address",
          "name": "forwarder",
          "type": "address"
        }
      ],
      "name": "isTrustedForwarder",
      "outputs": [
        {
          "internalType": "bool",
          "name": "",
          "type": "bool"
        }
      ],
      "stateMutability": "view",
      "type": "function"
    },
    {
      "inputs": [],
      "name": "lastUpdate",
      "outputs": [
        {
          "internalType": "uint256",
          "name": "",
          "type": "uint256"
        }
      ],
      "stateMutability": "view",
      "type": "function"
    },
    {
      "inputs": [],
      "name": "locationConditionsJobId",
      "outputs": [
        {
          "internalType": "bytes32",
          "name": "",
          "type": "bytes32"
        }
      ],
      "stateMutability": "view",
      "type": "function"
    },
    {
      "inputs": [],
      "name": "locationInfo",
      "outputs": [
        {
          "internalType": "uint256",
          "name": "locationKey",
          "type": "uint256"
        },
        {
          "internalType": "string",
          "name": "name",
          "type": "string"
        },
        {
          "internalType": "bytes2",
          "name": "countryCode",
          "type": "bytes2"
        }
      ],
      "stateMutability": "view",
      "type": "function"
    },
    {
      "inputs": [],
      "name": "mintGasless",
      "outputs": [],
      "stateMutability": "nonpayable",
      "type": "function"
    },
    {
      "inputs": [],
      "name": "mintStandard",
      "outputs": [],
      "stateMutability": "nonpayable",
      "type": "function"
    },
    {
      "inputs": [],
      "name": "name",
      "outputs": [
        {
          "internalType": "string",
          "name": "",
          "type": "string"
        }
      ],
      "stateMutability": "view",
      "type": "function"
    },
    {
      "inputs": [],
      "name": "owner",
      "outputs": [
        {
          "internalType": "address",
          "name": "",
          "type": "address"
        }
      ],
      "stateMutability": "view",
      "type": "function"
    },
    {
      "inputs": [
        {
          "internalType": "uint256",
          "name": "tokenId",
          "type": "uint256"
        }
      ],
      "name": "ownerOf",
      "outputs": [
        {
          "internalType": "address",
          "name": "",
          "type": "address"
        }
      ],
      "stateMutability": "view",
      "type": "function"
    },
    {
      "inputs": [],
      "name": "precipitationConversionConstant",
      "outputs": [
        {
          "internalType": "uint24",
          "name": "",
          "type": "uint24"
        }
      ],
      "stateMutability": "view",
      "type": "function"
    },
    {
      "inputs": [
        {
          "internalType": "uint256",
          "name": "",
          "type": "uint256"
        }
      ],
      "name": "pretzelData",
      "outputs": [
        {
          "internalType": "uint8",
          "name": "background",
          "type": "uint8"
        },
        {
          "internalType": "bool",
          "name": "half",
          "type": "bool"
        },
        {
          "internalType": "bool",
          "name": "salt",
          "type": "bool"
        },
        {
          "internalType": "enum BasePretzel.Coating",
          "name": "coating",
          "type": "uint8"
        },
        {
          "internalType": "enum BasePretzel.Topping",
          "name": "topping",
          "type": "uint8"
        }
      ],
      "stateMutability": "view",
      "type": "function"
    },
    {
      "inputs": [],
      "name": "renounceOwnership",
      "outputs": [],
      "stateMutability": "nonpayable",
      "type": "function"
    },
    {
      "inputs": [],
      "name": "requestLocationCurrentConditions",
      "outputs": [],
      "stateMutability": "nonpayable",
      "type": "function"
    },
    {
      "inputs": [
        {
          "internalType": "address",
          "name": "from",
          "type": "address"
        },
        {
          "internalType": "address",
          "name": "to",
          "type": "address"
        },
        {
          "internalType": "uint256",
          "name": "tokenId",
          "type": "uint256"
        }
      ],
      "name": "safeTransferFrom",
      "outputs": [],
      "stateMutability": "nonpayable",
      "type": "function"
    },
    {
      "inputs": [
        {
          "internalType": "address",
          "name": "from",
          "type": "address"
        },
        {
          "internalType": "address",
          "name": "to",
          "type": "address"
        },
        {
          "internalType": "uint256",
          "name": "tokenId",
          "type": "uint256"
        },
        {
          "internalType": "bytes",
          "name": "_data",
          "type": "bytes"
        }
      ],
      "name": "safeTransferFrom",
      "outputs": [],
      "stateMutability": "nonpayable",
      "type": "function"
    },
    {
      "inputs": [
        {
          "internalType": "address",
          "name": "operator",
          "type": "address"
        },
        {
          "internalType": "bool",
          "name": "approved",
          "type": "bool"
        }
      ],
      "name": "setApprovalForAll",
      "outputs": [],
      "stateMutability": "nonpayable",
      "type": "function"
    },
    {
      "inputs": [
        {
          "internalType": "string",
          "name": "uri",
          "type": "string"
        }
      ],
      "name": "setBaseURI",
      "outputs": [],
      "stateMutability": "nonpayable",
      "type": "function"
    },
    {
      "inputs": [
        {
          "internalType": "bytes32",
          "name": "_locationConditionsJobId",
          "type": "bytes32"
        }
      ],
      "name": "setLocationConditionsJobId",
      "outputs": [],
      "stateMutability": "nonpayable",
      "type": "function"
    },
    {
      "inputs": [
        {
          "internalType": "address",
          "name": "_oracle",
          "type": "address"
        }
      ],
      "name": "setOracle",
      "outputs": [],
      "stateMutability": "nonpayable",
      "type": "function"
    },
    {
      "inputs": [
        {
          "internalType": "uint256",
          "name": "delta",
          "type": "uint256"
        }
      ],
      "name": "setUpdateFrequency",
      "outputs": [],
      "stateMutability": "nonpayable",
      "type": "function"
    },
    {
      "inputs": [
        {
          "internalType": "bytes4",
          "name": "interfaceId",
          "type": "bytes4"
        }
      ],
      "name": "supportsInterface",
      "outputs": [
        {
          "internalType": "bool",
          "name": "",
          "type": "bool"
        }
      ],
      "stateMutability": "view",
      "type": "function"
    },
    {
      "inputs": [],
      "name": "symbol",
      "outputs": [
        {
          "internalType": "string",
          "name": "",
          "type": "string"
        }
      ],
      "stateMutability": "view",
      "type": "function"
    },
    {
      "inputs": [],
      "name": "temperatureConversionConstant",
      "outputs": [
        {
          "internalType": "int16",
          "name": "",
          "type": "int16"
        }
      ],
      "stateMutability": "view",
      "type": "function"
    },
    {
      "inputs": [
        {
          "internalType": "uint256",
          "name": "tokenId",
          "type": "uint256"
        }
      ],
      "name": "tokenURI",
      "outputs": [
        {
          "internalType": "string",
          "name": "",
          "type": "string"
        }
      ],
      "stateMutability": "view",
      "type": "function"
    },
    {
      "inputs": [],
      "name": "totalSupply",
      "outputs": [
        {
          "internalType": "uint256",
          "name": "",
          "type": "uint256"
        }
      ],
      "stateMutability": "view",
      "type": "function"
    },
    {
      "inputs": [
        {
          "internalType": "address",
          "name": "from",
          "type": "address"
        },
        {
          "internalType": "address",
          "name": "to",
          "type": "address"
        },
        {
          "internalType": "uint256",
          "name": "tokenId",
          "type": "uint256"
        }
      ],
      "name": "transferFrom",
      "outputs": [],
      "stateMutability": "nonpayable",
      "type": "function"
    },
    {
      "inputs": [
        {
          "internalType": "address",
          "name": "newOwner",
          "type": "address"
        }
      ],
      "name": "transferOwnership",
      "outputs": [],
      "stateMutability": "nonpayable",
      "type": "function"
    },
    {
      "inputs": [],
      "name": "updateFrequency",
      "outputs": [
        {
          "internalType": "uint256",
          "name": "",
          "type": "uint256"
        }
      ],
      "stateMutability": "view",
      "type": "function"
    },
    {
      "inputs": [],
      "name": "withdrawLink",
      "outputs": [],
      "stateMutability": "nonpayable",
      "type": "function"
    }
  ],
  "bytecode": "0x6001600a557f3763323736393836653233623462316339393064383635396263613761396430600d5567016345785d8a0000600e556012610100818152710d0e0b8c4d0d0c0d0cce0d0d8dcdce4d4dcd60721b61012090815260c091825261018060405261014083815271062625c6a706a7064646c707268706e6c6e760731b6101605260e05290916014916200009991839190620002ac565b506020828101518051620000b49260018501920190620002ac565b50506000601681905561a8c0601755600460a052604080516020810191829052829052620000e69250601991620002ac565b506000601b55348015620000f957600080fd5b5060405162003e1138038062003e118339810160408190526200011c916200036f565b8282826040518060400160405280600c81526020016b14dd59d85c941c995d1e995b60a21b8152506040518060400160405280600581526020016414d414969360da1b81525084828281600090805190602001906200017d929190620002ac565b50805162000193906001906020840190620002ac565b5050506001600160a01b0316608052620001b6620001b062000201565b6200021d565b600880546001600160a01b0319166001600160a01b038616179055600980546001600160a01b0319166001600160a01b0385161790555050601b54601a5550620003f6945050505050565b6000620002186200026f60201b6200169c1760201c565b905090565b600c80546001600160a01b038381166001600160a01b0319831681179093556040519116919082907f8be0079c531659141344cd1fd0a4f28419497f9722a3daafe3b4186f6b6457e090600090a35050565b6080516000906001600160a01b031633141562000293575060131936013560601c90565b62000218620002a860201b620016be1760201c565b3390565b828054620002ba90620003b9565b90600052602060002090601f016020900481019282620002de576000855562000329565b82601f10620002f957805160ff191683800117855562000329565b8280016001018555821562000329579182015b82811115620003295782518255916020019190600101906200030c565b50620003379291506200033b565b5090565b5b808211156200033757600081556001016200033c565b80516001600160a01b03811681146200036a57600080fd5b919050565b6000806000606084860312156200038557600080fd5b620003908462000352565b9250620003a06020850162000352565b9150620003b06040850162000352565b90509250925092565b600181811c90821680620003ce57607f821691505b60208210811415620003f057634e487b7160e01b600052602260045260246000fd5b50919050565b60805160a0516139f56200041c600039600061208901526000610b9301526139f56000f3fe608060405234801561001057600080fd5b506004361061022d5760003560e01c806370bc8a721161013b578063b18b78dd116100b8578063cd1207501161007c578063cd120750146105d3578063e32c7af2146105db578063e8eacfdd146105e3578063e985e9c5146105fa578063f2fde38b1461060d57600080fd5b8063b18b78dd14610594578063b88d4fde1461059c578063ba8f4acf146105af578063c0463711146105b7578063c87b56dd146105c057600080fd5b80638dc654a2116100ff5780638dc654a21461053b57806394605a5f1461054357806395d89b4114610566578063a22cb4651461056e578063ae5a840d1461058157600080fd5b806370bc8a72146104f3578063715018a6146104fc5780637adbf973146105045780638b2e5d30146105175780638da5cb5b1461053357600080fd5b806343076edb116101c95780635a81d3b11161018d5780635a81d3b1146104a15780636352211e146104bc578063673ea086146104cf5780636c0360eb146104d857806370a08231146104e057600080fd5b806343076edb146103145780634a1be6cb1461037057806355f804b314610383578063572b6c05146103965780635a6b8944146103a957600080fd5b806301ffc9a71461023257806306fdde031461025a578063081812fc1461026f578063095ea7b31461029a57806318160ddd146102af5780631d0e83d5146102c557806323b872dd146102db578063371eaced146102ee57806342842e0e14610301575b600080fd5b610245610240366004612de1565b610620565b60405190151581526020015b60405180910390f35b610262610672565b6040516102519190612e56565b61028261027d366004612e69565b610704565b6040516001600160a01b039091168152602001610251565b6102ad6102a8366004612e9e565b610791565b005b601b54601a54035b604051908152602001610251565b6102cd6108b4565b604051610251929190612ec8565b6102ad6102e9366004612eed565b6109d4565b6102ad6102fc366004613045565b610a0c565b6102ad61030f366004612eed565b610ae7565b61035f610322366004612e69565b60186020526000908152604090205460ff808216916101008104821691620100008204811691630100000081048216916401000000009091041685565b6040516102519594939291906130da565b6102ad61037e366004612e69565b610b02565b6102ad61039136600461312a565b610b46565b6102456103a436600461319b565b610b91565b60125460135461042c919062ffffff808216916301000000810482169166010000000000008204811691600160481b810490911690600160601b810460010b9061ffff600160701b8204811691600160801b81049091169060ff600160901b8204811691600160981b8104821691600160a01b8204811691600160a81b9004168c565b604080519c8d5262ffffff9b8c1660208e0152998b16998c019990995296891660608b015294909716608089015260019290920b60a088015261ffff90811660c08801521660e086015260ff938416610100860152831661012085015282166101408401521661016082015261018001610251565b6104a9600a81565b60405160019190910b8152602001610251565b6102826104ca366004612e69565b610bc3565b6102b760175481565b610262610c3a565b6102b76104ee36600461319b565b610cc8565b6102b7600d5481565b6102ad610d4f565b6102ad61051236600461319b565b610d9a565b61051f606481565b60405162ffffff9091168152602001610251565b610282610dfa565b6102ad610e09565b61024561055136600461319b565b601c6020526000908152604090205460ff1681565b610262610f9f565b6102ad61057c3660046131b6565b610fae565b6102ad61058f366004612e69565b610fc4565b610282611008565b6102ad6105aa3660046131ed565b611021565b6102ad611060565b6102b760165481565b6102626105ce366004612e69565b6110d2565b6102ad61119d565b6102ad6112cd565b6105eb611521565b60405161025193929190613248565b610245610608366004613278565b6115c1565b6102ad61061b36600461319b565b6115ef565b60006001600160e01b031982166380ac58cd60e01b148061065157506001600160e01b03198216635b5e139f60e01b145b8061066c57506301ffc9a760e01b6001600160e01b03198316145b92915050565b606060008054610681906132ab565b80601f01602080910402602001604051908101604052809291908181526020018280546106ad906132ab565b80156106fa5780601f106106cf576101008083540402835291602001916106fa565b820191906000526020600020905b8154815290600101906020018083116106dd57829003601f168201915b5050505050905090565b600061070f826116c2565b6107755760405162461bcd60e51b815260206004820152602c60248201527f4552433732313a20617070726f76656420717565727920666f72206e6f6e657860448201526b34b9ba32b73a103a37b5b2b760a11b60648201526084015b60405180910390fd5b506000908152600460205260409020546001600160a01b031690565b600061079c82610bc3565b9050806001600160a01b0316836001600160a01b0316141561080a5760405162461bcd60e51b815260206004820152602160248201527f4552433732313a20617070726f76616c20746f2063757272656e74206f776e656044820152603960f91b606482015260840161076c565b806001600160a01b031661081c6116df565b6001600160a01b031614806108385750610838816106086116df565b6108a55760405162461bcd60e51b815260206004820152603860248201527f4552433732313a20617070726f76652063616c6c6572206973206e6f74206f776044820152771b995c881b9bdc88185c1c1c9bdd995908199bdc88185b1b60421b606482015260840161076c565b6108af83836116e9565b505050565b6014805481906108c3906132ab565b80601f01602080910402602001604051908101604052809291908181526020018280546108ef906132ab565b801561093c5780601f106109115761010080835404028352916020019161093c565b820191906000526020600020905b81548152906001019060200180831161091f57829003601f168201915b505050505090806001018054610951906132ab565b80601f016020809104026020016040519081016040528092919081815260200182805461097d906132ab565b80156109ca5780601f1061099f576101008083540402835291602001916109ca565b820191906000526020600020905b8154815290600101906020018083116109ad57829003601f168201915b5050505050905082565b6109e56109df6116df565b82611757565b610a015760405162461bcd60e51b815260040161076c906132e0565b6108af838383611821565b6000848152600b602052604090205484906001600160a01b03163314610a855760405162461bcd60e51b815260206004820152602860248201527f536f75726365206d75737420626520746865206f7261636c65206f6620746865604482015267081c995c5d595cdd60c21b606482015260840161076c565b6000818152600b602052604080822080546001600160a01b03191690555182917f7cc135e0cebb02c3480ae5d74d377283180a2601f8f644edf7987b009316c63a91a28315610ae057610ad7836119bd565b610ae082611a19565b5050505050565b6108af83838360405180602001604052806000815250611021565b610b0a6116df565b6001600160a01b0316610b1b610dfa565b6001600160a01b031614610b415760405162461bcd60e51b815260040161076c90613331565b601755565b610b4e6116df565b6001600160a01b0316610b5f610dfa565b6001600160a01b031614610b855760405162461bcd60e51b815260040161076c90613331565b6108af60198383612c6f565b7f00000000000000000000000000000000000000000000000000000000000000006001600160a01b0390811691161490565b6000818152600260205260408120546001600160a01b03168061066c5760405162461bcd60e51b815260206004820152602960248201527f4552433732313a206f776e657220717565727920666f72206e6f6e657869737460448201526832b73a103a37b5b2b760b91b606482015260840161076c565b60198054610c47906132ab565b80601f0160208091040260200160405190810160405280929190818152602001828054610c73906132ab565b8015610cc05780601f10610c9557610100808354040283529160200191610cc0565b820191906000526020600020905b815481529060010190602001808311610ca357829003601f168201915b505050505081565b60006001600160a01b038216610d335760405162461bcd60e51b815260206004820152602a60248201527f4552433732313a2062616c616e636520717565727920666f7220746865207a65604482015269726f206164647265737360b01b606482015260840161076c565b506001600160a01b031660009081526003602052604090205490565b610d576116df565b6001600160a01b0316610d68610dfa565b6001600160a01b031614610d8e5760405162461bcd60e51b815260040161076c90613331565b610d986000611bcd565b565b610da26116df565b6001600160a01b0316610db3610dfa565b6001600160a01b031614610dd95760405162461bcd60e51b815260040161076c90613331565b600980546001600160a01b0319166001600160a01b03831617905550565b50565b600c546001600160a01b031690565b610e116116df565b6001600160a01b0316610e22610dfa565b6001600160a01b031614610e485760405162461bcd60e51b815260040161076c90613331565b6000610e5c6008546001600160a01b031690565b6040516370a0823160e01b81523060048201529091506001600160a01b0382169063a9059cbb90339083906370a082319060240160206040518083038186803b158015610ea857600080fd5b505afa158015610ebc573d6000803e3d6000fd5b505050506040513d601f19601f82011682018060405250810190610ee09190613366565b6040516001600160e01b031960e085901b1681526001600160a01b0390921660048301526024820152604401602060405180830381600087803b158015610f2657600080fd5b505af1158015610f3a573d6000803e3d6000fd5b505050506040513d601f19601f82011682018060405250810190610f5e919061337f565b610df75760405162461bcd60e51b81526020600482015260126024820152712ab730b13632903a37903a3930b739b332b960711b604482015260640161076c565b606060018054610681906132ab565b610fc0610fb96116df565b8383611c1f565b5050565b610fcc6116df565b6001600160a01b0316610fdd610dfa565b6001600160a01b0316146110035760405162461bcd60e51b815260040161076c90613331565b600d55565b600061101c6009546001600160a01b031690565b905090565b61103261102c6116df565b83611757565b61104e5760405162461bcd60e51b815260040161076c906132e0565b61105a84848484611cea565b50505050565b326110696116df565b6001600160a01b0316146110ca5760405162461bcd60e51b815260206004820152602260248201527f436f6e74726163747320617265206e6f7420616c6c6f77656420746f206d696e6044820152613a1760f11b606482015260840161076c565b610d98611d1d565b60606110dd826116c2565b6111415760405162461bcd60e51b815260206004820152602f60248201527f4552433732314d657461646174613a2055524920717565727920666f72206e6f60448201526e3732bc34b9ba32b73a103a37b5b2b760891b606482015260840161076c565b600061114b611d3d565b9050600081511161116b5760405180602001604052806000815250611196565b8061117584611d4c565b60405160200161118692919061339c565b6040516020818303038152906040525b9392505050565b6111a633610b91565b6112085760405162461bcd60e51b815260206004820152602d60248201527f4761736c657373206d696e74696e67206973206f6e6c7920706f737369626c6560448201526c103b34b09027b832b723a9a71760991b606482015260840161076c565b601c60006112146116df565b6001600160a01b0316815260208101919091526040016000205460ff161561128f5760405162461bcd60e51b815260206004820152602860248201527f4d6178696d756d206e756d626572206f66206761736c657373206d696e7473206044820152673932b0b1b432b21760c11b606482015260840161076c565b6001601c600061129d6116df565b6001600160a01b031681526020810191909152604001600020805460ff1916911515919091179055610d98611d1d565b6017546016546112dd90426133e1565b10156113515760405162461bcd60e51b815260206004820152603e60248201527f5765617468657220636f6e646974696f6e732063616e206f6e6c79206265207560448201527f70646174656420657665727920247570646174654672657175656e63792e0000606482015260840161076c565b42601655600d5460009061136d903063371eaced60e01b611e49565b90506113d960405180604001604052806008815260200167195b991c1bda5b9d60c21b8152506040518060400160405280601b81526020017f6c6f636174696f6e2d63757272656e742d636f6e646974696f6e73000000000081525083611e6e9092919063ffffffff16565b611496604051806040016040528060038152602001621b185d60ea1b81525060146000018054611408906132ab565b80601f0160208091040260200160405190810160405280929190818152602001828054611434906132ab565b80156114815780601f1061145657610100808354040283529160200191611481565b820191906000526020600020905b81548152906001019060200180831161146457829003601f168201915b505050505083611e6e9092919063ffffffff16565b6114c5604051806040016040528060038152602001623637b760e91b81525060146001018054611408906132ab565b61151560405180604001604052806005815260200164756e69747360d81b815250604051806040016040528060068152602001656d657472696360d01b81525083611e6e9092919063ffffffff16565b610fc081600e54611e8c565b600f805460108054919291611535906132ab565b80601f0160208091040260200160405190810160405280929190818152602001828054611561906132ab565b80156115ae5780601f10611583576101008083540402835291602001916115ae565b820191906000526020600020905b81548152906001019060200180831161159157829003601f168201915b5050506002909301549192505060f01b83565b6001600160a01b03918216600090815260056020908152604080832093909416825291909152205460ff1690565b6115f76116df565b6001600160a01b0316611608610dfa565b6001600160a01b03161461162e5760405162461bcd60e51b815260040161076c90613331565b6001600160a01b0381166116935760405162461bcd60e51b815260206004820152602660248201527f4f776e61626c653a206e6577206f776e657220697320746865207a65726f206160448201526564647265737360d01b606482015260840161076c565b610df781611bcd565b60006116a733610b91565b156116b9575060131936013560601c90565b503390565b3390565b6000908152600260205260409020546001600160a01b0316151590565b600061101c61169c565b600081815260046020526040902080546001600160a01b0319166001600160a01b038416908117909155819061171e82610bc3565b6001600160a01b03167f8c5be1e5ebec7d5bd14f71427d1e84f3dd0314c0f7b2291e5b200ac8c7c3b92560405160405180910390a45050565b6000611762826116c2565b6117c35760405162461bcd60e51b815260206004820152602c60248201527f4552433732313a206f70657261746f7220717565727920666f72206e6f6e657860448201526b34b9ba32b73a103a37b5b2b760a11b606482015260840161076c565b60006117ce83610bc3565b9050806001600160a01b0316846001600160a01b031614806118095750836001600160a01b03166117fe84610704565b6001600160a01b0316145b80611819575061181981856115c1565b949350505050565b826001600160a01b031661183482610bc3565b6001600160a01b0316146118985760405162461bcd60e51b815260206004820152602560248201527f4552433732313a207472616e736665722066726f6d20696e636f72726563742060448201526437bbb732b960d91b606482015260840161076c565b6001600160a01b0382166118fa5760405162461bcd60e51b8152602060048201526024808201527f4552433732313a207472616e7366657220746f20746865207a65726f206164646044820152637265737360e01b606482015260840161076c565b6119056000826116e9565b6001600160a01b038316600090815260036020526040812080546001929061192e9084906133e1565b90915550506001600160a01b038216600090815260036020526040812080546001929061195c9084906133f8565b909155505060008181526002602052604080822080546001600160a01b0319166001600160a01b0386811691821790925591518493918716917fddf252ad1be2c89b69c2b068fc378daa952ba7f163c4a11628f55a4df523b3ef91a4505050565b6000818060200190518101906119d39190613428565b8051600f908155602080830151805193945084936119f5926010920190612cf3565b50604091909101516002909101805461ffff191660f09290921c9190911790555050565b600081806020019051810190611a2f919061352f565b90508060126000820151816000015560208201518160010160006101000a81548162ffffff021916908362ffffff16021790555060408201518160010160036101000a81548162ffffff021916908362ffffff16021790555060608201518160010160066101000a81548162ffffff021916908362ffffff16021790555060808201518160010160096101000a81548162ffffff021916908362ffffff16021790555060a082015181600101600c6101000a81548161ffff021916908360010b61ffff16021790555060c082015181600101600e6101000a81548161ffff021916908361ffff16021790555060e08201518160010160106101000a81548161ffff021916908361ffff1602179055506101008201518160010160126101000a81548160ff021916908360ff1602179055506101208201518160010160136101000a81548160ff021916908360ff1602179055506101408201518160010160146101000a81548160ff021916908360ff1602179055506101608201518160010160156101000a81548160ff021916908360ff1602179055509050505050565b600c80546001600160a01b038381166001600160a01b0319831681179093556040519116919082907f8be0079c531659141344cd1fd0a4f28419497f9722a3daafe3b4186f6b6457e090600090a35050565b816001600160a01b0316836001600160a01b03161415611c7d5760405162461bcd60e51b815260206004820152601960248201527822a9219b99189d1030b8383937bb32903a379031b0b63632b960391b604482015260640161076c565b6001600160a01b03838116600081815260056020908152604080832094871680845294825291829020805460ff191686151590811790915591519182527f17307eab39ab6107e8899845ad3d59bd9653f200f220920489ca2b5937696c31910160405180910390a3505050565b611cf5848484611821565b611d0184848484611ea6565b61105a5760405162461bcd60e51b815260040161076c90613614565b610d98611d286116df565b611d38611d336116df565b611fba565b612130565b606060198054610681906132ab565b606081611d705750506040805180820190915260018152600360fc1b602082015290565b8160005b8115611d9a5780611d8481613666565b9150611d939050600a83613697565b9150611d74565b6000816001600160401b03811115611db457611db4612f37565b6040519080825280601f01601f191660200182016040528015611dde576020820181803683370190505b5090505b841561181957611df36001836133e1565b9150611e00600a866136ab565b611e0b9060306133f8565b60f81b818381518110611e2057611e206136bf565b60200101906001600160f81b031916908160001a905350611e42600a86613697565b9450611de2565b611e51612d67565b611e59612d67565b611e658186868661220c565b95945050505050565b6080830151611e7d9083612249565b60808301516108af9082612249565b600954600090611196906001600160a01b03168484612260565b60006001600160a01b0384163b15611faf57836001600160a01b031663150b7a02611ecf6116df565b8786866040518563ffffffff1660e01b8152600401611ef194939291906136d5565b602060405180830381600087803b158015611f0b57600080fd5b505af1925050508015611f3b575060408051601f3d908101601f19168201909252611f3891810190613708565b60015b611f95573d808015611f69576040519150601f19603f3d011682016040523d82523d6000602084013e611f6e565b606091505b508051611f8d5760405162461bcd60e51b815260040161076c90613614565b805181602001fd5b6001600160e01b031916630a85bd0160e11b149050611819565b506001949350505050565b60408051600480825260a082019092526060916000919060208201608080368337019050509050823a434244611ff16001846133e1565b4030612000601b54601a540390565b604080516001600160a01b03998a166020820152908101979097526060870195909552608086019390935260a085019190915260c084015290921660e0820152610100810191909152610120016040516020818303038152906040528051906020012060001c81600081518110612079576120796136bf565b602090810291909101015260015b7f000000000000000000000000000000000000000000000000000000000000000063ffffffff1681101561212957816120c16001836133e1565b815181106120d1576120d16136bf565b60200260200101516040516020016120eb91815260200190565b6040516020818303038152906040528051906020012060001c828281518110612116576121166136bf565b6020908102919091010152600101612087565b5092915050565b601a8054600181019091556000612146836122f3565b6000838152601860209081526040918290208351815492850151938501511515620100000262ff0000199415156101000261ffff1990941660ff9092169190911792909217928316821781556060840151939450849390929091839163ff0000001990911663ffff0000199091161763010000008360028111156121cc576121cc6130c4565b021790555060808201518154829064ff00000000191664010000000083600c8111156121fa576121fa6130c4565b021790555090505061105a848361260a565b612214612d67565b6122248560800151610100612624565b50509183526001600160a01b031660208301526001600160e01b031916604082015290565b612256826003835161267c565b6108af8282612783565b600a546000906122718160016133f8565b600a55835160408086015160808701515191516000936320214ca360e11b936122a99386938493923092918a91600191602401613725565b60408051601f198184030181529190526020810180516001600160e01b03166001600160e01b03199093169290921790915290506122e98683868461279d565b9695505050505050565b6123246040805160a08101825260008082526020820181905291810182905290606082019081526020016000905290565b601354600160601b810460010b9062ffffff166003806000841361234b576000915061238b565b612357600a600f61378d565b60010b8460010b121561236d576001915061238b565b612379600a601e61378d565b60010b8460010b121561238b57600291505b62ffffff831661239d575060006123e3565b6123a960646019613818565b62ffffff168362ffffff1610156123c2575060016123e3565b6123ce6064604b613818565b62ffffff168362ffffff1610156123e3575060025b60006123f0836004613843565b6123fa908361386c565b90506000600288600081518110612413576124136136bf565b602002602001015161242591906136ab565b6001141590506000600a89600181518110612442576124426136bf565b602002602001015161245491906136ab565b159050808015612462575081155b156124b3576040518060a001604052808460ff1681526020018315158152602001821515815260200160028081111561249d5761249d6130c4565b8152602001600c90529998505050505050505050565b600080600a8b6002815181106124cb576124cb6136bf565b60200260200101516124dd91906136ab565b11905080156125bd57600060028b6002815181106124fd576124fd6136bf565b602002602001015161250f91906136ab565b6002811115612520576125206130c4565b90506000600d8c600381518110612539576125396136bf565b602002602001015161254b91906136ab565b600c81111561255c5761255c6130c4565b90506040518060a001604052808760ff16815260200186151581526020018515158152602001836002811115612594576125946130c4565b815260200182600c8111156125ab576125ab6130c4565b90529c9b505050505050505050505050565b6040518060a001604052808560ff168152602001841515815260200183151581526020016002808111156125f3576125f36130c4565b8152602001600c90529a9950505050505050505050565b610fc082826040518060200160405280600081525061290a565b61262c612d9c565b6126376020836136ab565b1561265f576126476020836136ab565b6126529060206133e1565b61265c90836133f8565b91505b506020828101829052604080518085526000815290920101905290565b6017816001600160401b0316116126a05761105a8360e0600585901b16831761293d565b60ff816001600160401b0316116126dc576126c6836018611fe0600586901b161761293d565b5061105a836001600160401b0383166001612955565b61ffff816001600160401b03161161271957612703836019611fe0600586901b161761293d565b5061105a836001600160401b0383166002612955565b63ffffffff816001600160401b0316116127585761274283601a611fe0600586901b161761293d565b5061105a836001600160401b0383166004612955565b61276d83601b611fe0600586901b161761293d565b5061105a836001600160401b0383166008612955565b61278b612d9c565b6111968384600001515184855161296e565b6040516bffffffffffffffffffffffff193060601b1660208201526034810184905260009060540160408051808303601f1901815282825280516020918201206000818152600b90925291812080546001600160a01b0319166001600160a01b038a1617905590925082917fb5e6e01e79f91267dc17b4e6314d5d4d03593d2ceee0fbb452b750bd70ea5af99190a2600854604051630200057560e51b81526001600160a01b0390911690634000aea09061286090889087908790600401613891565b602060405180830381600087803b15801561287a57600080fd5b505af115801561288e573d6000803e3d6000fd5b505050506040513d601f19601f820116820180604052508101906128b2919061337f565b6118195760405162461bcd60e51b815260206004820152602360248201527f756e61626c6520746f207472616e73666572416e6443616c6c20746f206f7261604482015262636c6560e81b606482015260840161076c565b6129148383612a4b565b6129216000848484611ea6565b6108af5760405162461bcd60e51b815260040161076c90613614565b612945612d9c565b6111968384600001515184612b7e565b61295d612d9c565b611819848560000151518585612bcd565b612976612d9c565b825182111561298457600080fd5b602085015161299383866133f8565b11156129c6576129c6856129b6876020015187866129b191906133f8565b612c41565b6129c19060026138b8565b612c58565b6000808651805187602083010193508088870111156129e55787860182525b505050602084015b60208410612a255780518252612a046020836133f8565b9150612a116020826133f8565b9050612a1e6020856133e1565b93506129ed565b51815160001960208690036101000a019081169019919091161790525083949350505050565b6001600160a01b038216612aa15760405162461bcd60e51b815260206004820181905260248201527f4552433732313a206d696e7420746f20746865207a65726f2061646472657373604482015260640161076c565b612aaa816116c2565b15612af75760405162461bcd60e51b815260206004820152601c60248201527f4552433732313a20746f6b656e20616c7265616479206d696e74656400000000604482015260640161076c565b6001600160a01b0382166000908152600360205260408120805460019290612b209084906133f8565b909155505060008181526002602052604080822080546001600160a01b0319166001600160a01b03861690811790915590518392907fddf252ad1be2c89b69c2b068fc378daa952ba7f163c4a11628f55a4df523b3ef908290a45050565b612b86612d9c565b83602001518310612ba657612ba684856020015160026129c191906138b8565b835180516020858301018481535080851415612bc3576001810182525b5093949350505050565b612bd5612d9c565b6020850151612be485846133f8565b1115612bf857612bf8856129b686856133f8565b60006001612c08846101006139b3565b612c1291906133e1565b9050855183868201018583198251161781525080518487011115612c365783860181525b509495945050505050565b600081831115612c5257508161066c565b50919050565b8151612c648383612624565b5061105a8382612783565b828054612c7b906132ab565b90600052602060002090601f016020900481019282612c9d5760008555612ce3565b82601f10612cb65782800160ff19823516178555612ce3565b82800160010185558215612ce3579182015b82811115612ce3578235825591602001919060010190612cc8565b50612cef929150612db6565b5090565b828054612cff906132ab565b90600052602060002090601f016020900481019282612d215760008555612ce3565b82601f10612d3a57805160ff1916838001178555612ce3565b82800160010185558215612ce3579182015b82811115612ce3578251825591602001919060010190612d4c565b6040805160a081018252600080825260208201819052918101829052606081019190915260808101612d97612d9c565b905290565b604051806040016040528060608152602001600081525090565b5b80821115612cef5760008155600101612db7565b6001600160e01b031981168114610df757600080fd5b600060208284031215612df357600080fd5b813561119681612dcb565b60005b83811015612e19578181015183820152602001612e01565b8381111561105a5750506000910152565b60008151808452612e42816020860160208601612dfe565b601f01601f19169290920160200192915050565b6020815260006111966020830184612e2a565b600060208284031215612e7b57600080fd5b5035919050565b80356001600160a01b0381168114612e9957600080fd5b919050565b60008060408385031215612eb157600080fd5b612eba83612e82565b946020939093013593505050565b604081526000612edb6040830185612e2a565b8281036020840152611e658185612e2a565b600080600060608486031215612f0257600080fd5b612f0b84612e82565b9250612f1960208501612e82565b9150604084013590509250925092565b8015158114610df757600080fd5b634e487b7160e01b600052604160045260246000fd5b604051606081016001600160401b0381118282101715612f6f57612f6f612f37565b60405290565b60405161018081016001600160401b0381118282101715612f6f57612f6f612f37565b604051601f8201601f191681016001600160401b0381118282101715612fc057612fc0612f37565b604052919050565b60006001600160401b03821115612fe157612fe1612f37565b50601f01601f191660200190565b600082601f83011261300057600080fd5b813561301361300e82612fc8565b612f98565b81815284602083860101111561302857600080fd5b816020850160208301376000918101602001919091529392505050565b6000806000806080858703121561305b57600080fd5b84359350602085013561306d81612f29565b925060408501356001600160401b038082111561308957600080fd5b61309588838901612fef565b935060608701359150808211156130ab57600080fd5b506130b887828801612fef565b91505092959194509250565b634e487b7160e01b600052602160045260246000fd5b60ff861681528415156020820152831515604082015260a0810160038410613104576131046130c4565b836060830152600d831061311a5761311a6130c4565b8260808301529695505050505050565b6000806020838503121561313d57600080fd5b82356001600160401b038082111561315457600080fd5b818501915085601f83011261316857600080fd5b81358181111561317757600080fd5b86602082850101111561318957600080fd5b60209290920196919550909350505050565b6000602082840312156131ad57600080fd5b61119682612e82565b600080604083850312156131c957600080fd5b6131d283612e82565b915060208301356131e281612f29565b809150509250929050565b6000806000806080858703121561320357600080fd5b61320c85612e82565b935061321a60208601612e82565b92506040850135915060608501356001600160401b0381111561323c57600080fd5b6130b887828801612fef565b8381526060602082015260006132616060830185612e2a565b905061ffff60f01b83166040830152949350505050565b6000806040838503121561328b57600080fd5b61329483612e82565b91506132a260208401612e82565b90509250929050565b600181811c908216806132bf57607f821691505b60208210811415612c5257634e487b7160e01b600052602260045260246000fd5b60208082526031908201527f4552433732313a207472616e736665722063616c6c6572206973206e6f74206f6040820152701ddb995c881b9bdc88185c1c1c9bdd9959607a1b606082015260800190565b6020808252818101527f4f776e61626c653a2063616c6c6572206973206e6f7420746865206f776e6572604082015260600190565b60006020828403121561337857600080fd5b5051919050565b60006020828403121561339157600080fd5b815161119681612f29565b600083516133ae818460208801612dfe565b8351908301906133c2818360208801612dfe565b01949350505050565b634e487b7160e01b600052601160045260246000fd5b6000828210156133f3576133f36133cb565b500390565b6000821982111561340b5761340b6133cb565b500190565b80516001600160f01b031981168114612e9957600080fd5b6000602080838503121561343b57600080fd5b82516001600160401b038082111561345257600080fd5b908401906060828703121561346657600080fd5b61346e612f4d565b82518152838301518281111561348357600080fd5b83019150601f8201871361349657600080fd5b81516134a461300e82612fc8565b81815288868386010111156134b857600080fd5b6134c782878301888701612dfe565b82860152506134d860408401613410565b60408201529695505050505050565b805162ffffff81168114612e9957600080fd5b8051600181900b8114612e9957600080fd5b805161ffff81168114612e9957600080fd5b805160ff81168114612e9957600080fd5b6000610180828403121561354257600080fd5b61354a612f75565b8251815261355a602084016134e7565b602082015261356b604084016134e7565b604082015261357c606084016134e7565b606082015261358d608084016134e7565b608082015261359e60a084016134fa565b60a08201526135af60c0840161350c565b60c08201526135c060e0840161350c565b60e08201526101006135d381850161351e565b908201526101206135e584820161351e565b908201526101406135f784820161351e565b9082015261016061360984820161351e565b908201529392505050565b60208082526032908201527f4552433732313a207472616e7366657220746f206e6f6e20455243373231526560408201527131b2b4bb32b91034b6b83632b6b2b73a32b960711b606082015260800190565b600060001982141561367a5761367a6133cb565b5060010190565b634e487b7160e01b600052601260045260246000fd5b6000826136a6576136a6613681565b500490565b6000826136ba576136ba613681565b500690565b634e487b7160e01b600052603260045260246000fd5b6001600160a01b03858116825284166020820152604081018390526080606082018190526000906122e990830184612e2a565b60006020828403121561371a57600080fd5b815161119681612dcb565b6001600160a01b0389811682526020820189905260408201889052861660608201526001600160e01b03198516608082015260a0810184905260c0810183905261010060e0820181905260009061377e83820185612e2a565b9b9a5050505050505050505050565b60008160010b8360010b617fff6000821360008413838304851182821616156137b8576137b86133cb565b617fff1960008512828116878305871216156137d6576137d66133cb565b600087129250858205871284841616156137f2576137f26133cb565b85850587128184161615613808576138086133cb565b5050509290910295945050505050565b600062ffffff8083168185168183048111821515161561383a5761383a6133cb565b02949350505050565b600060ff821660ff84168160ff0481118215151615613864576138646133cb565b029392505050565b600060ff821660ff84168060ff03821115613889576138896133cb565b019392505050565b60018060a01b0384168152826020820152606060408201526000611e656060830184612e2a565b60008160001904831182151516156138d2576138d26133cb565b500290565b600181815b808511156139125781600019048211156138f8576138f86133cb565b8085161561390557918102915b93841c93908002906138dc565b509250929050565b6000826139295750600161066c565b816139365750600061066c565b816001811461394c576002811461395657613972565b600191505061066c565b60ff841115613967576139676133cb565b50506001821b61066c565b5060208310610133831016604e8410600b8410161715613995575081810a61066c565b61399f83836138d7565b8060001904821115613864576138646133cb565b6000611196838361391a56fea26469706673582212204b11d06978a1ad4c744aa3844d6d7f27446cba06a85152e1fe2b939afb7de62a64736f6c63430008090033",
  "linkReferences": {},
  "deployedLinkReferences": {}
}