{
  "_format": "hh-sol-artifact-1",
  "contractName": "SugarPretzels",
  "sourceName": "contracts/SugarPretzels/SugarPretzels.sol",
  "abi": [
    {
      "inputs": [
        {
          "internalType": "address",
          "name": "trustedForwarder",
          "type": "address"
        },
        {
          "internalType": "address",
          "name": "_link",
          "type": "address"
        },
        {
          "internalType": "address",
          "name": "_oracle",
          "type": "address"
        }
      ],
      "stateMutability": "nonpayable",
      "type": "constructor"
    },
    {
      "anonymous": false,
      "inputs": [
        {
          "indexed": true,
          "internalType": "address",
          "name": "owner",
          "type": "address"
        },
        {
          "indexed": true,
          "internalType": "address",
          "name": "approved",
          "type": "address"
        },
        {
          "indexed": true,
          "internalType": "uint256",
          "name": "tokenId",
          "type": "uint256"
        }
      ],
      "name": "Approval",
      "type": "event"
    },
    {
      "anonymous": false,
      "inputs": [
        {
          "indexed": true,
          "internalType": "address",
          "name": "owner",
          "type": "address"
        },
        {
          "indexed": true,
          "internalType": "address",
          "name": "operator",
          "type": "address"
        },
        {
          "indexed": false,
          "internalType": "bool",
          "name": "approved",
          "type": "bool"
        }
      ],
      "name": "ApprovalForAll",
      "type": "event"
    },
    {
      "anonymous": false,
      "inputs": [
        {
          "indexed": true,
          "internalType": "bytes32",
          "name": "id",
          "type": "bytes32"
        }
      ],
      "name": "ChainlinkCancelled",
      "type": "event"
    },
    {
      "anonymous": false,
      "inputs": [
        {
          "indexed": true,
          "internalType": "bytes32",
          "name": "id",
          "type": "bytes32"
        }
      ],
      "name": "ChainlinkFulfilled",
      "type": "event"
    },
    {
      "anonymous": false,
      "inputs": [
        {
          "indexed": true,
          "internalType": "bytes32",
          "name": "id",
          "type": "bytes32"
        }
      ],
      "name": "ChainlinkRequested",
      "type": "event"
    },
    {
      "anonymous": false,
      "inputs": [
        {
          "indexed": true,
          "internalType": "address",
          "name": "previousOwner",
          "type": "address"
        },
        {
          "indexed": true,
          "internalType": "address",
          "name": "newOwner",
          "type": "address"
        }
      ],
      "name": "OwnershipTransferred",
      "type": "event"
    },
    {
      "anonymous": false,
      "inputs": [
        {
          "indexed": true,
          "internalType": "address",
          "name": "from",
          "type": "address"
        },
        {
          "indexed": true,
          "internalType": "address",
          "name": "to",
          "type": "address"
        },
        {
          "indexed": true,
          "internalType": "uint256",
          "name": "tokenId",
          "type": "uint256"
        }
      ],
      "name": "Transfer",
      "type": "event"
    },
    {
      "inputs": [
        {
          "internalType": "address",
          "name": "to",
          "type": "address"
        },
        {
          "internalType": "uint256",
          "name": "tokenId",
          "type": "uint256"
        }
      ],
      "name": "approve",
      "outputs": [],
      "stateMutability": "nonpayable",
      "type": "function"
    },
    {
      "inputs": [
        {
          "internalType": "address",
          "name": "owner",
          "type": "address"
        }
      ],
      "name": "balanceOf",
      "outputs": [
        {
          "internalType": "uint256",
          "name": "",
          "type": "uint256"
        }
      ],
      "stateMutability": "view",
      "type": "function"
    },
    {
      "inputs": [],
      "name": "baseURI",
      "outputs": [
        {
          "internalType": "string",
          "name": "",
          "type": "string"
        }
      ],
      "stateMutability": "view",
      "type": "function"
    },
    {
      "inputs": [],
      "name": "currentConditions",
      "outputs": [
        {
          "internalType": "uint256",
          "name": "timestamp",
          "type": "uint256"
        },
        {
          "internalType": "uint24",
          "name": "precipitationPast12Hours",
          "type": "uint24"
        },
        {
          "internalType": "uint24",
          "name": "precipitationPast24Hours",
          "type": "uint24"
        },
        {
          "internalType": "uint24",
          "name": "precipitationPastHour",
          "type": "uint24"
        },
        {
          "internalType": "uint24",
          "name": "pressure",
          "type": "uint24"
        },
        {
          "internalType": "int16",
          "name": "temperature",
          "type": "int16"
        },
        {
          "internalType": "uint16",
          "name": "windDirectionDegrees",
          "type": "uint16"
        },
        {
          "internalType": "uint16",
          "name": "windSpeed",
          "type": "uint16"
        },
        {
          "internalType": "uint8",
          "name": "precipitationType",
          "type": "uint8"
        },
        {
          "internalType": "uint8",
          "name": "relativeHumidity",
          "type": "uint8"
        },
        {
          "internalType": "uint8",
          "name": "uvIndex",
          "type": "uint8"
        },
        {
          "internalType": "uint8",
          "name": "weatherIcon",
          "type": "uint8"
        }
      ],
      "stateMutability": "view",
      "type": "function"
    },
    {
      "inputs": [
        {
          "internalType": "bytes32",
          "name": "_requestId",
          "type": "bytes32"
        },
        {
          "internalType": "bool",
          "name": "_locationFound",
          "type": "bool"
        },
        {
          "internalType": "bytes",
          "name": "_locationResult",
          "type": "bytes"
        },
        {
          "internalType": "bytes",
          "name": "_currentConditionsResult",
          "type": "bytes"
        }
      ],
      "name": "fulfillLocationCurrentConditions",
      "outputs": [],
      "stateMutability": "nonpayable",
      "type": "function"
    },
    {
      "inputs": [
        {
          "internalType": "uint256",
          "name": "tokenId",
          "type": "uint256"
        }
      ],
      "name": "getApproved",
      "outputs": [
        {
          "internalType": "address",
          "name": "",
          "type": "address"
        }
      ],
      "stateMutability": "view",
      "type": "function"
    },
    {
      "inputs": [],
      "name": "getOracleAddress",
      "outputs": [
        {
          "internalType": "address",
          "name": "",
          "type": "address"
        }
      ],
      "stateMutability": "view",
      "type": "function"
    },
    {
      "inputs": [
        {
          "internalType": "address",
          "name": "",
          "type": "address"
        }
      ],
      "name": "hasMintedGaseless",
      "outputs": [
        {
          "internalType": "bool",
          "name": "",
          "type": "bool"
        }
      ],
      "stateMutability": "view",
      "type": "function"
    },
    {
      "inputs": [],
      "name": "hausDerKunstLocation",
      "outputs": [
        {
          "internalType": "string",
          "name": "lat",
          "type": "string"
        },
        {
          "internalType": "string",
          "name": "long",
          "type": "string"
        }
      ],
      "stateMutability": "view",
      "type": "function"
    },
    {
      "inputs": [
        {
          "internalType": "address",
          "name": "owner",
          "type": "address"
        },
        {
          "internalType": "address",
          "name": "operator",
          "type": "address"
        }
      ],
      "name": "isApprovedForAll",
      "outputs": [
        {
          "internalType": "bool",
          "name": "",
          "type": "bool"
        }
      ],
      "stateMutability": "view",
      "type": "function"
    },
    {
      "inputs": [
        {
          "internalType": "address",
          "name": "forwarder",
          "type": "address"
        }
      ],
      "name": "isTrustedForwarder",
      "outputs": [
        {
          "internalType": "bool",
          "name": "",
          "type": "bool"
        }
      ],
      "stateMutability": "view",
      "type": "function"
    },
    {
      "inputs": [],
      "name": "lastUpdate",
      "outputs": [
        {
          "internalType": "uint256",
          "name": "",
          "type": "uint256"
        }
      ],
      "stateMutability": "view",
      "type": "function"
    },
    {
      "inputs": [],
      "name": "locationConditionsJobId",
      "outputs": [
        {
          "internalType": "bytes32",
          "name": "",
          "type": "bytes32"
        }
      ],
      "stateMutability": "view",
      "type": "function"
    },
    {
      "inputs": [],
      "name": "locationInfo",
      "outputs": [
        {
          "internalType": "uint256",
          "name": "locationKey",
          "type": "uint256"
        },
        {
          "internalType": "string",
          "name": "name",
          "type": "string"
        },
        {
          "internalType": "bytes2",
          "name": "countryCode",
          "type": "bytes2"
        }
      ],
      "stateMutability": "view",
      "type": "function"
    },
    {
      "inputs": [],
      "name": "mint",
      "outputs": [],
      "stateMutability": "nonpayable",
      "type": "function"
    },
    {
      "inputs": [],
      "name": "mintWithoutGas",
      "outputs": [],
      "stateMutability": "nonpayable",
      "type": "function"
    },
    {
      "inputs": [],
      "name": "name",
      "outputs": [
        {
          "internalType": "string",
          "name": "",
          "type": "string"
        }
      ],
      "stateMutability": "view",
      "type": "function"
    },
    {
      "inputs": [],
      "name": "owner",
      "outputs": [
        {
          "internalType": "address",
          "name": "",
          "type": "address"
        }
      ],
      "stateMutability": "view",
      "type": "function"
    },
    {
      "inputs": [
        {
          "internalType": "uint256",
          "name": "tokenId",
          "type": "uint256"
        }
      ],
      "name": "ownerOf",
      "outputs": [
        {
          "internalType": "address",
          "name": "",
          "type": "address"
        }
      ],
      "stateMutability": "view",
      "type": "function"
    },
    {
      "inputs": [],
      "name": "precipitationConversionConstant",
      "outputs": [
        {
          "internalType": "uint24",
          "name": "",
          "type": "uint24"
        }
      ],
      "stateMutability": "view",
      "type": "function"
    },
    {
      "inputs": [
        {
          "internalType": "uint256",
          "name": "",
          "type": "uint256"
        }
      ],
      "name": "pretzelData",
      "outputs": [
        {
          "internalType": "uint8",
          "name": "background",
          "type": "uint8"
        },
        {
          "internalType": "bool",
          "name": "half",
          "type": "bool"
        },
        {
          "internalType": "bool",
          "name": "salt",
          "type": "bool"
        },
        {
          "internalType": "enum SugarPretzels.Coating",
          "name": "icing",
          "type": "uint8"
        },
        {
          "internalType": "enum SugarPretzels.Topping",
          "name": "topping",
          "type": "uint8"
        }
      ],
      "stateMutability": "view",
      "type": "function"
    },
    {
      "inputs": [],
      "name": "renounceOwnership",
      "outputs": [],
      "stateMutability": "nonpayable",
      "type": "function"
    },
    {
      "inputs": [],
      "name": "requestLocationCurrentConditions",
      "outputs": [],
      "stateMutability": "nonpayable",
      "type": "function"
    },
    {
      "inputs": [
        {
          "internalType": "address",
          "name": "from",
          "type": "address"
        },
        {
          "internalType": "address",
          "name": "to",
          "type": "address"
        },
        {
          "internalType": "uint256",
          "name": "tokenId",
          "type": "uint256"
        }
      ],
      "name": "safeTransferFrom",
      "outputs": [],
      "stateMutability": "nonpayable",
      "type": "function"
    },
    {
      "inputs": [
        {
          "internalType": "address",
          "name": "from",
          "type": "address"
        },
        {
          "internalType": "address",
          "name": "to",
          "type": "address"
        },
        {
          "internalType": "uint256",
          "name": "tokenId",
          "type": "uint256"
        },
        {
          "internalType": "bytes",
          "name": "_data",
          "type": "bytes"
        }
      ],
      "name": "safeTransferFrom",
      "outputs": [],
      "stateMutability": "nonpayable",
      "type": "function"
    },
    {
      "inputs": [
        {
          "internalType": "address",
          "name": "operator",
          "type": "address"
        },
        {
          "internalType": "bool",
          "name": "approved",
          "type": "bool"
        }
      ],
      "name": "setApprovalForAll",
      "outputs": [],
      "stateMutability": "nonpayable",
      "type": "function"
    },
    {
      "inputs": [
        {
          "internalType": "string",
          "name": "uri",
          "type": "string"
        }
      ],
      "name": "setBaseURI",
      "outputs": [],
      "stateMutability": "nonpayable",
      "type": "function"
    },
    {
      "inputs": [
        {
          "internalType": "bytes32",
          "name": "_locationConditionsJobId",
          "type": "bytes32"
        }
      ],
      "name": "setLocationConditionsJobId",
      "outputs": [],
      "stateMutability": "nonpayable",
      "type": "function"
    },
    {
      "inputs": [
        {
          "internalType": "address",
          "name": "_oracle",
          "type": "address"
        }
      ],
      "name": "setOracle",
      "outputs": [],
      "stateMutability": "nonpayable",
      "type": "function"
    },
    {
      "inputs": [
        {
          "internalType": "uint256",
          "name": "delta",
          "type": "uint256"
        }
      ],
      "name": "setUpdateFrequency",
      "outputs": [],
      "stateMutability": "nonpayable",
      "type": "function"
    },
    {
      "inputs": [
        {
          "internalType": "bytes4",
          "name": "interfaceId",
          "type": "bytes4"
        }
      ],
      "name": "supportsInterface",
      "outputs": [
        {
          "internalType": "bool",
          "name": "",
          "type": "bool"
        }
      ],
      "stateMutability": "view",
      "type": "function"
    },
    {
      "inputs": [],
      "name": "symbol",
      "outputs": [
        {
          "internalType": "string",
          "name": "",
          "type": "string"
        }
      ],
      "stateMutability": "view",
      "type": "function"
    },
    {
      "inputs": [],
      "name": "temperatureConversionConstant",
      "outputs": [
        {
          "internalType": "int16",
          "name": "",
          "type": "int16"
        }
      ],
      "stateMutability": "view",
      "type": "function"
    },
    {
      "inputs": [
        {
          "internalType": "uint256",
          "name": "tokenId",
          "type": "uint256"
        }
      ],
      "name": "tokenURI",
      "outputs": [
        {
          "internalType": "string",
          "name": "",
          "type": "string"
        }
      ],
      "stateMutability": "view",
      "type": "function"
    },
    {
      "inputs": [],
      "name": "totalSupply",
      "outputs": [
        {
          "internalType": "uint256",
          "name": "",
          "type": "uint256"
        }
      ],
      "stateMutability": "view",
      "type": "function"
    },
    {
      "inputs": [
        {
          "internalType": "address",
          "name": "from",
          "type": "address"
        },
        {
          "internalType": "address",
          "name": "to",
          "type": "address"
        },
        {
          "internalType": "uint256",
          "name": "tokenId",
          "type": "uint256"
        }
      ],
      "name": "transferFrom",
      "outputs": [],
      "stateMutability": "nonpayable",
      "type": "function"
    },
    {
      "inputs": [
        {
          "internalType": "address",
          "name": "newOwner",
          "type": "address"
        }
      ],
      "name": "transferOwnership",
      "outputs": [],
      "stateMutability": "nonpayable",
      "type": "function"
    },
    {
      "inputs": [],
      "name": "updateFrequency",
      "outputs": [
        {
          "internalType": "uint256",
          "name": "",
          "type": "uint256"
        }
      ],
      "stateMutability": "view",
      "type": "function"
    },
    {
      "inputs": [],
      "name": "withdrawLink",
      "outputs": [],
      "stateMutability": "nonpayable",
      "type": "function"
    }
  ],
  "bytecode": "0x6001600a5560e06040819052600060c08190526200002091601291620002cc565b50600160145561a8c06016557f376332373639383665323362346231633939306438363539626361376139643060175567016345785d8a0000601855604080516080810182526012818301818152710d0e0b8c4d0d0c0d0cce0d0d8dcdce4d4dcd60721b606084015282528251808401909352825271062625c6a706a7064646c707268706e6c6e760731b60208381019190915280820192909252805180519192601992620000d39284920190620002cc565b506020828101518051620000ee9260018501920190620002cc565b50506000601b5550600460a0523480156200010857600080fd5b5060405162003dcb38038062003dcb8339810160408190526200012b916200038f565b604080518082018252600d81526c5375676172507265747a656c7360981b60208083019182528351808501909452600384526253505360e81b9084015281518693916200017c9160009190620002cc565b50805162000192906001906020840190620002cc565b5050506001600160a01b0316608052620001b5620001af62000221565b6200023d565b601d80546001600160a01b0319166001600160a01b038516179055620001f782600880546001600160a01b0319166001600160a01b0392909216919091179055565b600980546001600160a01b0319166001600160a01b03831617905550506014546013555062000416565b6000620002386200028f60201b620016b71760201c565b905090565b600c80546001600160a01b038381166001600160a01b0319831681179093556040519116919082907f8be0079c531659141344cd1fd0a4f28419497f9722a3daafe3b4186f6b6457e090600090a35050565b6080516000906001600160a01b0316331415620002b3575060131936013560601c90565b62000238620002c860201b620016d91760201c565b3390565b828054620002da90620003d9565b90600052602060002090601f016020900481019282620002fe576000855562000349565b82601f106200031957805160ff191683800117855562000349565b8280016001018555821562000349579182015b82811115620003495782518255916020019190600101906200032c565b50620003579291506200035b565b5090565b5b808211156200035757600081556001016200035c565b80516001600160a01b03811681146200038a57600080fd5b919050565b600080600060608486031215620003a557600080fd5b620003b08462000372565b9250620003c06020850162000372565b9150620003d06040850162000372565b90509250925092565b600181811c90821680620003ee57607f821691505b602082108114156200041057634e487b7160e01b600052602260045260246000fd5b50919050565b60805160a05161398f6200043c600039600061184101526000610c1f015261398f6000f3fe608060405234801561001057600080fd5b506004361061022d5760003560e01c806370a082311161013b578063a22cb465116100b8578063c87b56dd1161007c578063c87b56dd146105c8578063e32c7af2146105db578063e8eacfdd146105e3578063e985e9c5146105fa578063f2fde38b1461060d57600080fd5b8063a22cb4651461057e578063ae5a840d14610591578063b18b78dd146105a4578063b88d4fde146105ac578063c0463711146105bf57600080fd5b80638b2e5d30116100ff5780638b2e5d30146105425780638da5cb5b1461055e5780638dc654a214610566578063936eb8281461056e57806395d89b411461057657600080fd5b806370a08231146104e857806370bc8a72146104fb578063715018a614610504578063777986e71461050c5780637adbf9731461052f57600080fd5b806342842e0e116101c95780635a6b89441161018d5780635a6b8944146103b15780635a81d3b1146104a95780636352211e146104c4578063673ea086146104d75780636c0360eb146104e057600080fd5b806342842e0e1461030957806343076edb1461031c5780634a1be6cb1461037857806355f804b31461038b578063572b6c051461039e57600080fd5b806301ffc9a71461023257806306fdde031461025a578063081812fc1461026f578063095ea7b31461029a5780631249c58b146102af57806318160ddd146102b75780631d0e83d5146102cd57806323b872dd146102e3578063371eaced146102f6575b600080fd5b610245610240366004612d7b565b610620565b60405190151581526020015b60405180910390f35b610262610672565b6040516102519190612df0565b61028261027d366004612e03565b610704565b6040516001600160a01b039091168152602001610251565b6102ad6102a8366004612e38565b610791565b005b6102ad6108b4565b601454601354035b604051908152602001610251565b6102d5610940565b604051610251929190612e62565b6102ad6102f1366004612e87565b610a60565b6102ad610304366004612fdf565b610a98565b6102ad610317366004612e87565b610b73565b61036761032a366004612e03565b601c6020526000908152604090205460ff808216916101008104821691620100008204811691630100000081048216916401000000009091041685565b604051610251959493929190613074565b6102ad610386366004612e03565b610b8e565b6102ad6103993660046130c4565b610bd2565b6102456103ac366004613135565b610c1d565b600d54600e54610434919062ffffff808216916301000000810482169166010000000000008204811691600160481b810490911690600160601b810460010b9061ffff600160701b8204811691600160801b81049091169060ff600160901b8204811691600160981b8104821691600160a01b8204811691600160a81b9004168c565b604080519c8d5262ffffff9b8c1660208e0152998b16998c019990995296891660608b015294909716608089015260019290920b60a088015261ffff90811660c08801521660e086015260ff938416610100860152831661012085015282166101408401521661016082015261018001610251565b6104b1600a81565b60405160019190910b8152602001610251565b6102826104d2366004612e03565b610c4f565b6102bf60165481565b610262610cc6565b6102bf6104f6366004613135565b610d54565b6102bf60175481565b6102ad610ddb565b61024561051a366004613135565b60156020526000908152604090205460ff1681565b6102ad61053d366004613135565b610e24565b61054a606481565b60405162ffffff9091168152602001610251565b610282610e84565b6102ad610e93565b6102ad611029565b61026261115c565b6102ad61058c366004613150565b61116b565b6102ad61059f366004612e03565b611181565b6102826111c5565b6102ad6105ba366004613187565b6111de565b6102bf601b5481565b6102626105d6366004612e03565b61121d565b6102ad6112e8565b6105eb61153c565b604051610251939291906131e2565b610245610608366004613212565b6115dc565b6102ad61061b366004613135565b61160a565b60006001600160e01b031982166380ac58cd60e01b148061065157506001600160e01b03198216635b5e139f60e01b145b8061066c57506301ffc9a760e01b6001600160e01b03198316145b92915050565b60606000805461068190613245565b80601f01602080910402602001604051908101604052809291908181526020018280546106ad90613245565b80156106fa5780601f106106cf576101008083540402835291602001916106fa565b820191906000526020600020905b8154815290600101906020018083116106dd57829003601f168201915b5050505050905090565b600061070f826116dd565b6107755760405162461bcd60e51b815260206004820152602c60248201527f4552433732313a20617070726f76656420717565727920666f72206e6f6e657860448201526b34b9ba32b73a103a37b5b2b760a11b60648201526084015b60405180910390fd5b506000908152600460205260409020546001600160a01b031690565b600061079c82610c4f565b9050806001600160a01b0316836001600160a01b0316141561080a5760405162461bcd60e51b815260206004820152602160248201527f4552433732313a20617070726f76616c20746f2063757272656e74206f776e656044820152603960f91b606482015260840161076c565b806001600160a01b031661081c6116fa565b6001600160a01b031614806108385750610838816106086116fa565b6108a55760405162461bcd60e51b815260206004820152603860248201527f4552433732313a20617070726f76652063616c6c6572206973206e6f74206f776044820152771b995c881b9bdc88185c1c1c9bdd995908199bdc88185b1b60421b606482015260840161076c565b6108af8383611704565b505050565b326108bd6116fa565b6001600160a01b03161461091e5760405162461bcd60e51b815260206004820152602260248201527f436f6e74726163747320617265206e6f7420616c6c6f77656420746f206d696e6044820152613a1760f11b606482015260840161076c565b61093e6109296116fa565b6109396109346116fa565b611772565b6118ec565b565b60198054819061094f90613245565b80601f016020809104026020016040519081016040528092919081815260200182805461097b90613245565b80156109c85780601f1061099d576101008083540402835291602001916109c8565b820191906000526020600020905b8154815290600101906020018083116109ab57829003601f168201915b5050505050908060010180546109dd90613245565b80601f0160208091040260200160405190810160405280929190818152602001828054610a0990613245565b8015610a565780601f10610a2b57610100808354040283529160200191610a56565b820191906000526020600020905b815481529060010190602001808311610a3957829003601f168201915b5050505050905082565b610a71610a6b6116fa565b826119c8565b610a8d5760405162461bcd60e51b815260040161076c9061327a565b6108af838383611a92565b6000848152600b602052604090205484906001600160a01b03163314610b115760405162461bcd60e51b815260206004820152602860248201527f536f75726365206d75737420626520746865206f7261636c65206f6620746865604482015267081c995c5d595cdd60c21b606482015260840161076c565b6000818152600b602052604080822080546001600160a01b03191690555182917f7cc135e0cebb02c3480ae5d74d377283180a2601f8f644edf7987b009316c63a91a28315610b6c57610b6383611c2e565b610b6c82611c8a565b5050505050565b6108af838383604051806020016040528060008152506111de565b610b966116fa565b6001600160a01b0316610ba7610e84565b6001600160a01b031614610bcd5760405162461bcd60e51b815260040161076c906132cb565b601655565b610bda6116fa565b6001600160a01b0316610beb610e84565b6001600160a01b031614610c115760405162461bcd60e51b815260040161076c906132cb565b6108af60128383612c09565b7f00000000000000000000000000000000000000000000000000000000000000006001600160a01b0390811691161490565b6000818152600260205260408120546001600160a01b03168061066c5760405162461bcd60e51b815260206004820152602960248201527f4552433732313a206f776e657220717565727920666f72206e6f6e657869737460448201526832b73a103a37b5b2b760b91b606482015260840161076c565b60128054610cd390613245565b80601f0160208091040260200160405190810160405280929190818152602001828054610cff90613245565b8015610d4c5780601f10610d2157610100808354040283529160200191610d4c565b820191906000526020600020905b815481529060010190602001808311610d2f57829003601f168201915b505050505081565b60006001600160a01b038216610dbf5760405162461bcd60e51b815260206004820152602a60248201527f4552433732313a2062616c616e636520717565727920666f7220746865207a65604482015269726f206164647265737360b01b606482015260840161076c565b506001600160a01b031660009081526003602052604090205490565b610de36116fa565b6001600160a01b0316610df4610e84565b6001600160a01b031614610e1a5760405162461bcd60e51b815260040161076c906132cb565b61093e6000611e3e565b610e2c6116fa565b6001600160a01b0316610e3d610e84565b6001600160a01b031614610e635760405162461bcd60e51b815260040161076c906132cb565b600980546001600160a01b0319166001600160a01b03831617905550565b50565b600c546001600160a01b031690565b610e9b6116fa565b6001600160a01b0316610eac610e84565b6001600160a01b031614610ed25760405162461bcd60e51b815260040161076c906132cb565b6000610ee66008546001600160a01b031690565b6040516370a0823160e01b81523060048201529091506001600160a01b0382169063a9059cbb90339083906370a082319060240160206040518083038186803b158015610f3257600080fd5b505afa158015610f46573d6000803e3d6000fd5b505050506040513d601f19601f82011682018060405250810190610f6a9190613300565b6040516001600160e01b031960e085901b1681526001600160a01b0390921660048301526024820152604401602060405180830381600087803b158015610fb057600080fd5b505af1158015610fc4573d6000803e3d6000fd5b505050506040513d601f19601f82011682018060405250810190610fe89190613319565b610e815760405162461bcd60e51b81526020600482015260126024820152712ab730b13632903a37903a3930b739b332b960711b604482015260640161076c565b61103233610c1d565b6110945760405162461bcd60e51b815260206004820152602d60248201527f4761736c657373206d696e74696e67206973206f6e6c7920706f737369626c6560448201526c103b34b09027b832b723a9a71760991b606482015260840161076c565b601560006110a06116fa565b6001600160a01b0316815260208101919091526040016000205460ff161561111b5760405162461bcd60e51b815260206004820152602860248201527f4d6178696d756d206e756d626572206f66206761736c657373206d696e7473206044820152673932b0b1b432b21760c11b606482015260840161076c565b6001601560006111296116fa565b6001600160a01b031681526020810191909152604001600020805460ff191691151591909117905561093e6109296116fa565b60606001805461068190613245565b61117d6111766116fa565b8383611e90565b5050565b6111896116fa565b6001600160a01b031661119a610e84565b6001600160a01b0316146111c05760405162461bcd60e51b815260040161076c906132cb565b601755565b60006111d96009546001600160a01b031690565b905090565b6111ef6111e96116fa565b836119c8565b61120b5760405162461bcd60e51b815260040161076c9061327a565b61121784848484611f5b565b50505050565b6060611228826116dd565b61128c5760405162461bcd60e51b815260206004820152602f60248201527f4552433732314d657461646174613a2055524920717565727920666f72206e6f60448201526e3732bc34b9ba32b73a103a37b5b2b760891b606482015260840161076c565b6000611296611f8e565b905060008151116112b657604051806020016040528060008152506112e1565b806112c084611f9d565b6040516020016112d1929190613336565b6040516020818303038152906040525b9392505050565b601654601b546112f8904261337b565b101561136c5760405162461bcd60e51b815260206004820152603e60248201527f5765617468657220636f6e646974696f6e732063616e206f6e6c79206265207560448201527f70646174656420657665727920247570646174654672657175656e63792e0000606482015260840161076c565b42601b55601754600090611388903063371eaced60e01b61209a565b90506113f460405180604001604052806008815260200167195b991c1bda5b9d60c21b8152506040518060400160405280601b81526020017f6c6f636174696f6e2d63757272656e742d636f6e646974696f6e730000000000815250836120bf9092919063ffffffff16565b6114b1604051806040016040528060038152602001621b185d60ea1b8152506019600001805461142390613245565b80601f016020809104026020016040519081016040528092919081815260200182805461144f90613245565b801561149c5780601f106114715761010080835404028352916020019161149c565b820191906000526020600020905b81548152906001019060200180831161147f57829003601f168201915b5050505050836120bf9092919063ffffffff16565b6114e0604051806040016040528060038152602001623637b760e91b8152506019600101805461142390613245565b61153060405180604001604052806005815260200164756e69747360d81b815250604051806040016040528060068152602001656d657472696360d01b815250836120bf9092919063ffffffff16565b61117d816018546120dd565b600f80546010805491929161155090613245565b80601f016020809104026020016040519081016040528092919081815260200182805461157c90613245565b80156115c95780601f1061159e576101008083540402835291602001916115c9565b820191906000526020600020905b8154815290600101906020018083116115ac57829003601f168201915b5050506002909301549192505060f01b83565b6001600160a01b03918216600090815260056020908152604080832093909416825291909152205460ff1690565b6116126116fa565b6001600160a01b0316611623610e84565b6001600160a01b0316146116495760405162461bcd60e51b815260040161076c906132cb565b6001600160a01b0381166116ae5760405162461bcd60e51b815260206004820152602660248201527f4f776e61626c653a206e6577206f776e657220697320746865207a65726f206160448201526564647265737360d01b606482015260840161076c565b610e8181611e3e565b60006116c233610c1d565b156116d4575060131936013560601c90565b503390565b3390565b6000908152600260205260409020546001600160a01b0316151590565b60006111d96116b7565b600081815260046020526040902080546001600160a01b0319166001600160a01b038416908117909155819061173982610c4f565b6001600160a01b03167f8c5be1e5ebec7d5bd14f71427d1e84f3dd0314c0f7b2291e5b200ac8c7c3b92560405160405180910390a45050565b60408051600480825260a082019092526060916000919060208201608080368337019050509050823a4342446117a960018461337b565b40306117b86014546013540390565b604080516001600160a01b03998a166020820152908101979097526060870195909552608086019390935260a085019190915260c084015290921660e0820152610100810191909152610120016040516020818303038152906040528051906020012060001c8160008151811061183157611831613392565b602090810291909101015260015b7f00000000000000000000000000000000000000000000000000000000000000008110156118e5578161187360018361337b565b8151811061188357611883613392565b602002602001015160405160200161189d91815260200190565b6040516020818303038152906040528051906020012060001c8282815181106118c8576118c8613392565b6020908102919091010152806118dd816133a8565b91505061183f565b5092915050565b60138054600181019091556000611902836120f7565b6000838152601c60209081526040918290208351815492850151938501511515620100000262ff0000199415156101000261ffff1990941660ff9092169190911792909217928316821781556060840151939450849390929091839163ff0000001990911663ffff0000199091161763010000008360028111156119885761198861305e565b021790555060808201518154829064ff00000000191664010000000083600c8111156119b6576119b661305e565b021790555090505061121784836123a9565b60006119d3826116dd565b611a345760405162461bcd60e51b815260206004820152602c60248201527f4552433732313a206f70657261746f7220717565727920666f72206e6f6e657860448201526b34b9ba32b73a103a37b5b2b760a11b606482015260840161076c565b6000611a3f83610c4f565b9050806001600160a01b0316846001600160a01b03161480611a7a5750836001600160a01b0316611a6f84610704565b6001600160a01b0316145b80611a8a5750611a8a81856115dc565b949350505050565b826001600160a01b0316611aa582610c4f565b6001600160a01b031614611b095760405162461bcd60e51b815260206004820152602560248201527f4552433732313a207472616e736665722066726f6d20696e636f72726563742060448201526437bbb732b960d91b606482015260840161076c565b6001600160a01b038216611b6b5760405162461bcd60e51b8152602060048201526024808201527f4552433732313a207472616e7366657220746f20746865207a65726f206164646044820152637265737360e01b606482015260840161076c565b611b76600082611704565b6001600160a01b0383166000908152600360205260408120805460019290611b9f90849061337b565b90915550506001600160a01b0382166000908152600360205260408120805460019290611bcd9084906133c3565b909155505060008181526002602052604080822080546001600160a01b0319166001600160a01b0386811691821790925591518493918716917fddf252ad1be2c89b69c2b068fc378daa952ba7f163c4a11628f55a4df523b3ef91a4505050565b600081806020019051810190611c4491906133f3565b8051600f90815560208083015180519394508493611c66926010920190612c8d565b50604091909101516002909101805461ffff191660f09290921c9190911790555050565b600081806020019051810190611ca091906134fa565b905080600d6000820151816000015560208201518160010160006101000a81548162ffffff021916908362ffffff16021790555060408201518160010160036101000a81548162ffffff021916908362ffffff16021790555060608201518160010160066101000a81548162ffffff021916908362ffffff16021790555060808201518160010160096101000a81548162ffffff021916908362ffffff16021790555060a082015181600101600c6101000a81548161ffff021916908360010b61ffff16021790555060c082015181600101600e6101000a81548161ffff021916908361ffff16021790555060e08201518160010160106101000a81548161ffff021916908361ffff1602179055506101008201518160010160126101000a81548160ff021916908360ff1602179055506101208201518160010160136101000a81548160ff021916908360ff1602179055506101408201518160010160146101000a81548160ff021916908360ff1602179055506101608201518160010160156101000a81548160ff021916908360ff1602179055509050505050565b600c80546001600160a01b038381166001600160a01b0319831681179093556040519116919082907f8be0079c531659141344cd1fd0a4f28419497f9722a3daafe3b4186f6b6457e090600090a35050565b816001600160a01b0316836001600160a01b03161415611eee5760405162461bcd60e51b815260206004820152601960248201527822a9219b99189d1030b8383937bb32903a379031b0b63632b960391b604482015260640161076c565b6001600160a01b03838116600081815260056020908152604080832094871680845294825291829020805460ff191686151590811790915591519182527f17307eab39ab6107e8899845ad3d59bd9653f200f220920489ca2b5937696c31910160405180910390a3505050565b611f66848484611a92565b611f72848484846123c3565b6112175760405162461bcd60e51b815260040161076c906135df565b60606012805461068190613245565b606081611fc15750506040805180820190915260018152600360fc1b602082015290565b8160005b8115611feb5780611fd5816133a8565b9150611fe49050600a83613647565b9150611fc5565b6000816001600160401b0381111561200557612005612ed1565b6040519080825280601f01601f19166020018201604052801561202f576020820181803683370190505b5090505b8415611a8a5761204460018361337b565b9150612051600a8661365b565b61205c9060306133c3565b60f81b81838151811061207157612071613392565b60200101906001600160f81b031916908160001a905350612093600a86613647565b9450612033565b6120a2612d01565b6120aa612d01565b6120b6818686866124d7565b95945050505050565b60808301516120ce9083612514565b60808301516108af9082612514565b6009546000906112e1906001600160a01b0316848461252b565b6121286040805160a08101825260008082526020820181905291810182905290606082019081526020016000905290565b600e54600160601b810460010b9062ffffff166003806000841361214f576000915061218f565b61215b600a600f61366f565b60010b8460010b1215612171576001915061218f565b61217d600a601e61366f565b60010b8460010b121561218f57600291505b62ffffff83166121a1575060006121e7565b6121ad606460196136fa565b62ffffff168362ffffff1610156121c6575060016121e7565b6121d26064604b6136fa565b62ffffff168362ffffff1610156121e7575060025b60006121f4836004613725565b6121fe908361374e565b9050600060028860008151811061221757612217613392565b6020026020010151612229919061365b565b6001141590506000600a8960018151811061224657612246613392565b6020026020010151612258919061365b565b6009149050808015612268575081155b156122ba576040518060a001604052808460ff16815260200183151581526020018215158152602001600060028111156122a4576122a461305e565b8152602001600090529998505050505050505050565b600060038a6002815181106122d1576122d1613392565b60200260200101516122e3919061365b565b60028111156122f4576122f461305e565b905060008082600281111561230b5761230b61305e565b1461234b57600d8b60038151811061232557612325613392565b6020026020010151612337919061365b565b600c8111156123485761234861305e565b90505b6040518060a001604052808660ff168152602001851515815260200184151581526020018360028111156123815761238161305e565b815260200182600c8111156123985761239861305e565b90529b9a5050505050505050505050565b61117d8282604051806020016040528060008152506125be565b60006001600160a01b0384163b156124cc57836001600160a01b031663150b7a026123ec6116fa565b8786866040518563ffffffff1660e01b815260040161240e9493929190613773565b602060405180830381600087803b15801561242857600080fd5b505af1925050508015612458575060408051601f3d908101601f19168201909252612455918101906137a6565b60015b6124b2573d808015612486576040519150601f19603f3d011682016040523d82523d6000602084013e61248b565b606091505b5080516124aa5760405162461bcd60e51b815260040161076c906135df565b805181602001fd5b6001600160e01b031916630a85bd0160e11b149050611a8a565b506001949350505050565b6124df612d01565b6124ef85608001516101006125f1565b50509183526001600160a01b031660208301526001600160e01b031916604082015290565b6125218260038351612649565b6108af8282612750565b600a5460009061253c8160016133c3565b600a55835160408086015160808701515191516000936320214ca360e11b936125749386938493923092918a916001916024016137c3565b60408051601f198184030181529190526020810180516001600160e01b03166001600160e01b03199093169290921790915290506125b48683868461276a565b9695505050505050565b6125c883836128d7565b6125d560008484846123c3565b6108af5760405162461bcd60e51b815260040161076c906135df565b6125f9612d36565b61260460208361365b565b1561262c5761261460208361365b565b61261f90602061337b565b61262990836133c3565b91505b506020828101829052604080518085526000815290920101905290565b6017816001600160401b03161161266d576112178360e0600585901b168317612a0a565b60ff816001600160401b0316116126a957612693836018611fe0600586901b1617612a0a565b50611217836001600160401b0383166001612a22565b61ffff816001600160401b0316116126e6576126d0836019611fe0600586901b1617612a0a565b50611217836001600160401b0383166002612a22565b63ffffffff816001600160401b0316116127255761270f83601a611fe0600586901b1617612a0a565b50611217836001600160401b0383166004612a22565b61273a83601b611fe0600586901b1617612a0a565b50611217836001600160401b0383166008612a22565b612758612d36565b6112e183846000015151848551612a3b565b6040516bffffffffffffffffffffffff193060601b1660208201526034810184905260009060540160408051808303601f1901815282825280516020918201206000818152600b90925291812080546001600160a01b0319166001600160a01b038a1617905590925082917fb5e6e01e79f91267dc17b4e6314d5d4d03593d2ceee0fbb452b750bd70ea5af99190a2600854604051630200057560e51b81526001600160a01b0390911690634000aea09061282d9088908790879060040161382b565b602060405180830381600087803b15801561284757600080fd5b505af115801561285b573d6000803e3d6000fd5b505050506040513d601f19601f8201168201806040525081019061287f9190613319565b611a8a5760405162461bcd60e51b815260206004820152602360248201527f756e61626c6520746f207472616e73666572416e6443616c6c20746f206f7261604482015262636c6560e81b606482015260840161076c565b6001600160a01b03821661292d5760405162461bcd60e51b815260206004820181905260248201527f4552433732313a206d696e7420746f20746865207a65726f2061646472657373604482015260640161076c565b612936816116dd565b156129835760405162461bcd60e51b815260206004820152601c60248201527f4552433732313a20746f6b656e20616c7265616479206d696e74656400000000604482015260640161076c565b6001600160a01b03821660009081526003602052604081208054600192906129ac9084906133c3565b909155505060008181526002602052604080822080546001600160a01b0319166001600160a01b03861690811790915590518392907fddf252ad1be2c89b69c2b068fc378daa952ba7f163c4a11628f55a4df523b3ef908290a45050565b612a12612d36565b6112e18384600001515184612b18565b612a2a612d36565b611a8a848560000151518585612b67565b612a43612d36565b8251821115612a5157600080fd5b6020850151612a6083866133c3565b1115612a9357612a9385612a8387602001518786612a7e91906133c3565b612bdb565b612a8e906002613852565b612bf2565b600080865180518760208301019350808887011115612ab25787860182525b505050602084015b60208410612af25780518252612ad16020836133c3565b9150612ade6020826133c3565b9050612aeb60208561337b565b9350612aba565b51815160001960208690036101000a019081169019919091161790525083949350505050565b612b20612d36565b83602001518310612b4057612b408485602001516002612a8e9190613852565b835180516020858301018481535080851415612b5d576001810182525b5093949350505050565b612b6f612d36565b6020850151612b7e85846133c3565b1115612b9257612b9285612a8386856133c3565b60006001612ba28461010061394d565b612bac919061337b565b9050855183868201018583198251161781525080518487011115612bd05783860181525b509495945050505050565b600081831115612bec57508161066c565b50919050565b8151612bfe83836125f1565b506112178382612750565b828054612c1590613245565b90600052602060002090601f016020900481019282612c375760008555612c7d565b82601f10612c505782800160ff19823516178555612c7d565b82800160010185558215612c7d579182015b82811115612c7d578235825591602001919060010190612c62565b50612c89929150612d50565b5090565b828054612c9990613245565b90600052602060002090601f016020900481019282612cbb5760008555612c7d565b82601f10612cd457805160ff1916838001178555612c7d565b82800160010185558215612c7d579182015b82811115612c7d578251825591602001919060010190612ce6565b6040805160a081018252600080825260208201819052918101829052606081019190915260808101612d31612d36565b905290565b604051806040016040528060608152602001600081525090565b5b80821115612c895760008155600101612d51565b6001600160e01b031981168114610e8157600080fd5b600060208284031215612d8d57600080fd5b81356112e181612d65565b60005b83811015612db3578181015183820152602001612d9b565b838111156112175750506000910152565b60008151808452612ddc816020860160208601612d98565b601f01601f19169290920160200192915050565b6020815260006112e16020830184612dc4565b600060208284031215612e1557600080fd5b5035919050565b80356001600160a01b0381168114612e3357600080fd5b919050565b60008060408385031215612e4b57600080fd5b612e5483612e1c565b946020939093013593505050565b604081526000612e756040830185612dc4565b82810360208401526120b68185612dc4565b600080600060608486031215612e9c57600080fd5b612ea584612e1c565b9250612eb360208501612e1c565b9150604084013590509250925092565b8015158114610e8157600080fd5b634e487b7160e01b600052604160045260246000fd5b604051606081016001600160401b0381118282101715612f0957612f09612ed1565b60405290565b60405161018081016001600160401b0381118282101715612f0957612f09612ed1565b604051601f8201601f191681016001600160401b0381118282101715612f5a57612f5a612ed1565b604052919050565b60006001600160401b03821115612f7b57612f7b612ed1565b50601f01601f191660200190565b600082601f830112612f9a57600080fd5b8135612fad612fa882612f62565b612f32565b818152846020838601011115612fc257600080fd5b816020850160208301376000918101602001919091529392505050565b60008060008060808587031215612ff557600080fd5b84359350602085013561300781612ec3565b925060408501356001600160401b038082111561302357600080fd5b61302f88838901612f89565b9350606087013591508082111561304557600080fd5b5061305287828801612f89565b91505092959194509250565b634e487b7160e01b600052602160045260246000fd5b60ff861681528415156020820152831515604082015260a081016003841061309e5761309e61305e565b836060830152600d83106130b4576130b461305e565b8260808301529695505050505050565b600080602083850312156130d757600080fd5b82356001600160401b03808211156130ee57600080fd5b818501915085601f83011261310257600080fd5b81358181111561311157600080fd5b86602082850101111561312357600080fd5b60209290920196919550909350505050565b60006020828403121561314757600080fd5b6112e182612e1c565b6000806040838503121561316357600080fd5b61316c83612e1c565b9150602083013561317c81612ec3565b809150509250929050565b6000806000806080858703121561319d57600080fd5b6131a685612e1c565b93506131b460208601612e1c565b92506040850135915060608501356001600160401b038111156131d657600080fd5b61305287828801612f89565b8381526060602082015260006131fb6060830185612dc4565b905061ffff60f01b83166040830152949350505050565b6000806040838503121561322557600080fd5b61322e83612e1c565b915061323c60208401612e1c565b90509250929050565b600181811c9082168061325957607f821691505b60208210811415612bec57634e487b7160e01b600052602260045260246000fd5b60208082526031908201527f4552433732313a207472616e736665722063616c6c6572206973206e6f74206f6040820152701ddb995c881b9bdc88185c1c1c9bdd9959607a1b606082015260800190565b6020808252818101527f4f776e61626c653a2063616c6c6572206973206e6f7420746865206f776e6572604082015260600190565b60006020828403121561331257600080fd5b5051919050565b60006020828403121561332b57600080fd5b81516112e181612ec3565b60008351613348818460208801612d98565b83519083019061335c818360208801612d98565b01949350505050565b634e487b7160e01b600052601160045260246000fd5b60008282101561338d5761338d613365565b500390565b634e487b7160e01b600052603260045260246000fd5b60006000198214156133bc576133bc613365565b5060010190565b600082198211156133d6576133d6613365565b500190565b80516001600160f01b031981168114612e3357600080fd5b6000602080838503121561340657600080fd5b82516001600160401b038082111561341d57600080fd5b908401906060828703121561343157600080fd5b613439612ee7565b82518152838301518281111561344e57600080fd5b83019150601f8201871361346157600080fd5b815161346f612fa882612f62565b818152888683860101111561348357600080fd5b61349282878301888701612d98565b82860152506134a3604084016133db565b60408201529695505050505050565b805162ffffff81168114612e3357600080fd5b8051600181900b8114612e3357600080fd5b805161ffff81168114612e3357600080fd5b805160ff81168114612e3357600080fd5b6000610180828403121561350d57600080fd5b613515612f0f565b82518152613525602084016134b2565b6020820152613536604084016134b2565b6040820152613547606084016134b2565b6060820152613558608084016134b2565b608082015261356960a084016134c5565b60a082015261357a60c084016134d7565b60c082015261358b60e084016134d7565b60e082015261010061359e8185016134e9565b908201526101206135b08482016134e9565b908201526101406135c28482016134e9565b908201526101606135d48482016134e9565b908201529392505050565b60208082526032908201527f4552433732313a207472616e7366657220746f206e6f6e20455243373231526560408201527131b2b4bb32b91034b6b83632b6b2b73a32b960711b606082015260800190565b634e487b7160e01b600052601260045260246000fd5b60008261365657613656613631565b500490565b60008261366a5761366a613631565b500690565b60008160010b8360010b617fff60008213600084138383048511828216161561369a5761369a613365565b617fff1960008512828116878305871216156136b8576136b8613365565b600087129250858205871284841616156136d4576136d4613365565b858505871281841616156136ea576136ea613365565b5050509290910295945050505050565b600062ffffff8083168185168183048111821515161561371c5761371c613365565b02949350505050565b600060ff821660ff84168160ff048111821515161561374657613746613365565b029392505050565b600060ff821660ff84168060ff0382111561376b5761376b613365565b019392505050565b6001600160a01b03858116825284166020820152604081018390526080606082018190526000906125b490830184612dc4565b6000602082840312156137b857600080fd5b81516112e181612d65565b6001600160a01b0389811682526020820189905260408201889052861660608201526001600160e01b03198516608082015260a0810184905260c0810183905261010060e0820181905260009061381c83820185612dc4565b9b9a5050505050505050505050565b60018060a01b03841681528260208201526060604082015260006120b66060830184612dc4565b600081600019048311821515161561386c5761386c613365565b500290565b600181815b808511156138ac57816000190482111561389257613892613365565b8085161561389f57918102915b93841c9390800290613876565b509250929050565b6000826138c35750600161066c565b816138d05750600061066c565b81600181146138e657600281146138f05761390c565b600191505061066c565b60ff84111561390157613901613365565b50506001821b61066c565b5060208310610133831016604e8410600b841016171561392f575081810a61066c565b6139398383613871565b806000190482111561374657613746613365565b60006112e183836138b456fea26469706673582212202fea3983dc03e91320855840e08a7d3e42a43dd0bd9559624ba8d886f0082cf464736f6c63430008090033",
  "linkReferences": {},
  "deployedLinkReferences": {}
}