{
  "_format": "hh-sol-artifact-1",
  "contractName": "SugarPretzels",
  "sourceName": "contracts/SugarPretzels/SugarPretzels.sol",
  "abi": [
    {
      "inputs": [
        {
          "internalType": "address",
          "name": "trustedForwarder",
          "type": "address"
        }
      ],
      "stateMutability": "nonpayable",
      "type": "constructor"
    },
    {
      "anonymous": false,
      "inputs": [
        {
          "indexed": true,
          "internalType": "address",
          "name": "owner",
          "type": "address"
        },
        {
          "indexed": true,
          "internalType": "address",
          "name": "approved",
          "type": "address"
        },
        {
          "indexed": true,
          "internalType": "uint256",
          "name": "tokenId",
          "type": "uint256"
        }
      ],
      "name": "Approval",
      "type": "event"
    },
    {
      "anonymous": false,
      "inputs": [
        {
          "indexed": true,
          "internalType": "address",
          "name": "owner",
          "type": "address"
        },
        {
          "indexed": true,
          "internalType": "address",
          "name": "operator",
          "type": "address"
        },
        {
          "indexed": false,
          "internalType": "bool",
          "name": "approved",
          "type": "bool"
        }
      ],
      "name": "ApprovalForAll",
      "type": "event"
    },
    {
      "anonymous": false,
      "inputs": [
        {
          "indexed": true,
          "internalType": "address",
          "name": "previousOwner",
          "type": "address"
        },
        {
          "indexed": true,
          "internalType": "address",
          "name": "newOwner",
          "type": "address"
        }
      ],
      "name": "OwnershipTransferred",
      "type": "event"
    },
    {
      "anonymous": false,
      "inputs": [
        {
          "indexed": true,
          "internalType": "bytes32",
          "name": "role",
          "type": "bytes32"
        },
        {
          "indexed": true,
          "internalType": "bytes32",
          "name": "previousAdminRole",
          "type": "bytes32"
        },
        {
          "indexed": true,
          "internalType": "bytes32",
          "name": "newAdminRole",
          "type": "bytes32"
        }
      ],
      "name": "RoleAdminChanged",
      "type": "event"
    },
    {
      "anonymous": false,
      "inputs": [
        {
          "indexed": true,
          "internalType": "bytes32",
          "name": "role",
          "type": "bytes32"
        },
        {
          "indexed": true,
          "internalType": "address",
          "name": "account",
          "type": "address"
        },
        {
          "indexed": true,
          "internalType": "address",
          "name": "sender",
          "type": "address"
        }
      ],
      "name": "RoleGranted",
      "type": "event"
    },
    {
      "anonymous": false,
      "inputs": [
        {
          "indexed": true,
          "internalType": "bytes32",
          "name": "role",
          "type": "bytes32"
        },
        {
          "indexed": true,
          "internalType": "address",
          "name": "account",
          "type": "address"
        },
        {
          "indexed": true,
          "internalType": "address",
          "name": "sender",
          "type": "address"
        }
      ],
      "name": "RoleRevoked",
      "type": "event"
    },
    {
      "anonymous": false,
      "inputs": [
        {
          "indexed": true,
          "internalType": "address",
          "name": "from",
          "type": "address"
        },
        {
          "indexed": true,
          "internalType": "address",
          "name": "to",
          "type": "address"
        },
        {
          "indexed": true,
          "internalType": "uint256",
          "name": "tokenId",
          "type": "uint256"
        }
      ],
      "name": "Transfer",
      "type": "event"
    },
    {
      "anonymous": false,
      "inputs": [
        {
          "indexed": true,
          "internalType": "address",
          "name": "from",
          "type": "address"
        },
        {
          "indexed": true,
          "internalType": "address",
          "name": "to",
          "type": "address"
        },
        {
          "indexed": true,
          "internalType": "uint256",
          "name": "tokenId",
          "type": "uint256"
        },
        {
          "indexed": false,
          "internalType": "bytes",
          "name": "metaData",
          "type": "bytes"
        }
      ],
      "name": "TransferWithMetadata",
      "type": "event"
    },
    {
      "anonymous": false,
      "inputs": [
        {
          "indexed": true,
          "internalType": "address",
          "name": "user",
          "type": "address"
        },
        {
          "indexed": false,
          "internalType": "uint256[]",
          "name": "tokenIds",
          "type": "uint256[]"
        }
      ],
      "name": "WithdrawnBatch",
      "type": "event"
    },
    {
      "inputs": [],
      "name": "BATCH_LIMIT",
      "outputs": [
        {
          "internalType": "uint256",
          "name": "",
          "type": "uint256"
        }
      ],
      "stateMutability": "view",
      "type": "function"
    },
    {
      "inputs": [],
      "name": "DEFAULT_ADMIN_ROLE",
      "outputs": [
        {
          "internalType": "bytes32",
          "name": "",
          "type": "bytes32"
        }
      ],
      "stateMutability": "view",
      "type": "function"
    },
    {
      "inputs": [],
      "name": "DEPOSITOR_ROLE",
      "outputs": [
        {
          "internalType": "bytes32",
          "name": "",
          "type": "bytes32"
        }
      ],
      "stateMutability": "view",
      "type": "function"
    },
    {
      "inputs": [
        {
          "internalType": "address",
          "name": "to",
          "type": "address"
        },
        {
          "internalType": "uint256",
          "name": "tokenId",
          "type": "uint256"
        }
      ],
      "name": "approve",
      "outputs": [],
      "stateMutability": "nonpayable",
      "type": "function"
    },
    {
      "inputs": [
        {
          "internalType": "address",
          "name": "owner",
          "type": "address"
        }
      ],
      "name": "balanceOf",
      "outputs": [
        {
          "internalType": "uint256",
          "name": "",
          "type": "uint256"
        }
      ],
      "stateMutability": "view",
      "type": "function"
    },
    {
      "inputs": [],
      "name": "baseURI",
      "outputs": [
        {
          "internalType": "string",
          "name": "",
          "type": "string"
        }
      ],
      "stateMutability": "view",
      "type": "function"
    },
    {
      "inputs": [
        {
          "internalType": "address",
          "name": "user",
          "type": "address"
        },
        {
          "internalType": "bytes",
          "name": "depositData",
          "type": "bytes"
        }
      ],
      "name": "deposit",
      "outputs": [],
      "stateMutability": "nonpayable",
      "type": "function"
    },
    {
      "inputs": [
        {
          "internalType": "uint256",
          "name": "tokenId",
          "type": "uint256"
        }
      ],
      "name": "encodeTokenMetadata",
      "outputs": [
        {
          "internalType": "bytes",
          "name": "",
          "type": "bytes"
        }
      ],
      "stateMutability": "view",
      "type": "function"
    },
    {
      "inputs": [
        {
          "internalType": "uint256",
          "name": "tokenId",
          "type": "uint256"
        }
      ],
      "name": "getApproved",
      "outputs": [
        {
          "internalType": "address",
          "name": "",
          "type": "address"
        }
      ],
      "stateMutability": "view",
      "type": "function"
    },
    {
      "inputs": [
        {
          "internalType": "bytes32",
          "name": "role",
          "type": "bytes32"
        }
      ],
      "name": "getRoleAdmin",
      "outputs": [
        {
          "internalType": "bytes32",
          "name": "",
          "type": "bytes32"
        }
      ],
      "stateMutability": "view",
      "type": "function"
    },
    {
      "inputs": [
        {
          "internalType": "bytes32",
          "name": "role",
          "type": "bytes32"
        },
        {
          "internalType": "address",
          "name": "account",
          "type": "address"
        }
      ],
      "name": "grantRole",
      "outputs": [],
      "stateMutability": "nonpayable",
      "type": "function"
    },
    {
      "inputs": [
        {
          "internalType": "address",
          "name": "",
          "type": "address"
        }
      ],
      "name": "hasMinted",
      "outputs": [
        {
          "internalType": "bool",
          "name": "",
          "type": "bool"
        }
      ],
      "stateMutability": "view",
      "type": "function"
    },
    {
      "inputs": [
        {
          "internalType": "bytes32",
          "name": "role",
          "type": "bytes32"
        },
        {
          "internalType": "address",
          "name": "account",
          "type": "address"
        }
      ],
      "name": "hasRole",
      "outputs": [
        {
          "internalType": "bool",
          "name": "",
          "type": "bool"
        }
      ],
      "stateMutability": "view",
      "type": "function"
    },
    {
      "inputs": [
        {
          "internalType": "address",
          "name": "owner",
          "type": "address"
        },
        {
          "internalType": "address",
          "name": "operator",
          "type": "address"
        }
      ],
      "name": "isApprovedForAll",
      "outputs": [
        {
          "internalType": "bool",
          "name": "",
          "type": "bool"
        }
      ],
      "stateMutability": "view",
      "type": "function"
    },
    {
      "inputs": [
        {
          "internalType": "address",
          "name": "forwarder",
          "type": "address"
        }
      ],
      "name": "isTrustedForwarder",
      "outputs": [
        {
          "internalType": "bool",
          "name": "",
          "type": "bool"
        }
      ],
      "stateMutability": "view",
      "type": "function"
    },
    {
      "inputs": [],
      "name": "name",
      "outputs": [
        {
          "internalType": "string",
          "name": "",
          "type": "string"
        }
      ],
      "stateMutability": "view",
      "type": "function"
    },
    {
      "inputs": [],
      "name": "owner",
      "outputs": [
        {
          "internalType": "address",
          "name": "",
          "type": "address"
        }
      ],
      "stateMutability": "view",
      "type": "function"
    },
    {
      "inputs": [
        {
          "internalType": "uint256",
          "name": "tokenId",
          "type": "uint256"
        }
      ],
      "name": "ownerOf",
      "outputs": [
        {
          "internalType": "address",
          "name": "",
          "type": "address"
        }
      ],
      "stateMutability": "view",
      "type": "function"
    },
    {
      "inputs": [],
      "name": "renounceOwnership",
      "outputs": [],
      "stateMutability": "nonpayable",
      "type": "function"
    },
    {
      "inputs": [
        {
          "internalType": "bytes32",
          "name": "role",
          "type": "bytes32"
        },
        {
          "internalType": "address",
          "name": "account",
          "type": "address"
        }
      ],
      "name": "renounceRole",
      "outputs": [],
      "stateMutability": "nonpayable",
      "type": "function"
    },
    {
      "inputs": [
        {
          "internalType": "bytes32",
          "name": "role",
          "type": "bytes32"
        },
        {
          "internalType": "address",
          "name": "account",
          "type": "address"
        }
      ],
      "name": "revokeRole",
      "outputs": [],
      "stateMutability": "nonpayable",
      "type": "function"
    },
    {
      "inputs": [],
      "name": "safeMint",
      "outputs": [],
      "stateMutability": "nonpayable",
      "type": "function"
    },
    {
      "inputs": [
        {
          "internalType": "address",
          "name": "from",
          "type": "address"
        },
        {
          "internalType": "address",
          "name": "to",
          "type": "address"
        },
        {
          "internalType": "uint256",
          "name": "tokenId",
          "type": "uint256"
        }
      ],
      "name": "safeTransferFrom",
      "outputs": [],
      "stateMutability": "nonpayable",
      "type": "function"
    },
    {
      "inputs": [
        {
          "internalType": "address",
          "name": "from",
          "type": "address"
        },
        {
          "internalType": "address",
          "name": "to",
          "type": "address"
        },
        {
          "internalType": "uint256",
          "name": "tokenId",
          "type": "uint256"
        },
        {
          "internalType": "bytes",
          "name": "_data",
          "type": "bytes"
        }
      ],
      "name": "safeTransferFrom",
      "outputs": [],
      "stateMutability": "nonpayable",
      "type": "function"
    },
    {
      "inputs": [
        {
          "internalType": "address",
          "name": "operator",
          "type": "address"
        },
        {
          "internalType": "bool",
          "name": "approved",
          "type": "bool"
        }
      ],
      "name": "setApprovalForAll",
      "outputs": [],
      "stateMutability": "nonpayable",
      "type": "function"
    },
    {
      "inputs": [
        {
          "internalType": "string",
          "name": "uri",
          "type": "string"
        }
      ],
      "name": "setBaseURI",
      "outputs": [],
      "stateMutability": "nonpayable",
      "type": "function"
    },
    {
      "inputs": [
        {
          "internalType": "bytes4",
          "name": "interfaceId",
          "type": "bytes4"
        }
      ],
      "name": "supportsInterface",
      "outputs": [
        {
          "internalType": "bool",
          "name": "",
          "type": "bool"
        }
      ],
      "stateMutability": "view",
      "type": "function"
    },
    {
      "inputs": [],
      "name": "symbol",
      "outputs": [
        {
          "internalType": "string",
          "name": "",
          "type": "string"
        }
      ],
      "stateMutability": "view",
      "type": "function"
    },
    {
      "inputs": [
        {
          "internalType": "uint256",
          "name": "index",
          "type": "uint256"
        }
      ],
      "name": "tokenByIndex",
      "outputs": [
        {
          "internalType": "uint256",
          "name": "",
          "type": "uint256"
        }
      ],
      "stateMutability": "view",
      "type": "function"
    },
    {
      "inputs": [
        {
          "internalType": "address",
          "name": "owner",
          "type": "address"
        },
        {
          "internalType": "uint256",
          "name": "index",
          "type": "uint256"
        }
      ],
      "name": "tokenOfOwnerByIndex",
      "outputs": [
        {
          "internalType": "uint256",
          "name": "",
          "type": "uint256"
        }
      ],
      "stateMutability": "view",
      "type": "function"
    },
    {
      "inputs": [
        {
          "internalType": "uint256",
          "name": "tokenId",
          "type": "uint256"
        }
      ],
      "name": "tokenURI",
      "outputs": [
        {
          "internalType": "string",
          "name": "",
          "type": "string"
        }
      ],
      "stateMutability": "view",
      "type": "function"
    },
    {
      "inputs": [],
      "name": "totalSupply",
      "outputs": [
        {
          "internalType": "uint256",
          "name": "",
          "type": "uint256"
        }
      ],
      "stateMutability": "view",
      "type": "function"
    },
    {
      "inputs": [
        {
          "internalType": "address",
          "name": "from",
          "type": "address"
        },
        {
          "internalType": "address",
          "name": "to",
          "type": "address"
        },
        {
          "internalType": "uint256",
          "name": "tokenId",
          "type": "uint256"
        }
      ],
      "name": "transferFrom",
      "outputs": [],
      "stateMutability": "nonpayable",
      "type": "function"
    },
    {
      "inputs": [
        {
          "internalType": "address",
          "name": "newOwner",
          "type": "address"
        }
      ],
      "name": "transferOwnership",
      "outputs": [],
      "stateMutability": "nonpayable",
      "type": "function"
    },
    {
      "inputs": [
        {
          "internalType": "uint256",
          "name": "tokenId",
          "type": "uint256"
        }
      ],
      "name": "withdraw",
      "outputs": [],
      "stateMutability": "nonpayable",
      "type": "function"
    },
    {
      "inputs": [
        {
          "internalType": "uint256[]",
          "name": "tokenIds",
          "type": "uint256[]"
        }
      ],
      "name": "withdrawBatch",
      "outputs": [],
      "stateMutability": "nonpayable",
      "type": "function"
    },
    {
      "inputs": [
        {
          "internalType": "uint256",
          "name": "tokenId",
          "type": "uint256"
        }
      ],
      "name": "withdrawWithMetadata",
      "outputs": [],
      "stateMutability": "nonpayable",
      "type": "function"
    },
    {
      "inputs": [
        {
          "internalType": "uint256",
          "name": "",
          "type": "uint256"
        }
      ],
      "name": "withdrawnTokens",
      "outputs": [
        {
          "internalType": "bool",
          "name": "",
          "type": "bool"
        }
      ],
      "stateMutability": "view",
      "type": "function"
    }
  ],
  "bytecode": "0x60c06040819052600060a08190526200001b91600e9162000266565b503480156200002957600080fd5b5060405162002fe638038062002fe68339810160408190526200004c916200030c565b604080518082018252600d81526c5375676172507265747a656c7360981b60208083019182528351808501909452600384526253505360e81b908401526001600160a01b0384166080528151919291620000a99160019162000266565b508051620000bf90600290602084019062000266565b505050620000fd7f8f4f2da22e8ac8f11e15f9fc141cddbb5deea8800186560abb6e68c5496619a9620000f76200011860201b60201c565b62000134565b620001116200010b62000118565b620001d7565b506200037b565b60006200012f6200022960201b620013cd1760201c565b905090565b6000828152602081815260408083206001600160a01b038516845290915290205460ff16620001d3576000828152602081815260408083206001600160a01b03851684529091529020805460ff191660011790556200019262000118565b6001600160a01b0316816001600160a01b0316837f2f8788117e7eff1d82e926ec794901d17c78024a50270940304540a733656f0d60405160405180910390a45b5050565b600c80546001600160a01b038381166001600160a01b0319831681179093556040519116919082907f8be0079c531659141344cd1fd0a4f28419497f9722a3daafe3b4186f6b6457e090600090a35050565b6080516000906001600160a01b03163314156200024d575060131936013560601c90565b6200012f6200026260201b620013f41760201c565b3390565b82805462000274906200033e565b90600052602060002090601f016020900481019282620002985760008555620002e3565b82601f10620002b357805160ff1916838001178555620002e3565b82800160010185558215620002e3579182015b82811115620002e3578251825591602001919060010190620002c6565b50620002f1929150620002f5565b5090565b5b80821115620002f15760008155600101620002f6565b6000602082840312156200031f57600080fd5b81516001600160a01b03811681146200033757600080fd5b9392505050565b600181811c908216806200035357607f821691505b602082108114156200037557634e487b7160e01b600052602260045260246000fd5b50919050565b608051612c4f620003976000396000610a900152612c4f6000f3fe608060405234801561001057600080fd5b50600436106102125760003560e01c80636871ee4011610120578063a217fddf116100b8578063c87b56dd1161007c578063c87b56dd146104ba578063cf2c52cb146104cd578063d547741f146104e0578063e985e9c5146104f3578063f2fde38b1461050657600080fd5b8063a217fddf14610452578063a22cb4651461045a578063a3b0b5a31461046d578063a5e584dc14610494578063b88d4fde146104a757600080fd5b80636871ee40146103e05780636c0360eb146103e857806370a08231146103f0578063715018a6146104035780638da5cb5b1461040b57806391d148541461041c5780639559c0bd1461042f57806395d89b41146104375780639c8d41561461043f57600080fd5b80632e1a7d4d116101ae57806342842e0e1161017257806342842e0e146103815780634f6ccce71461039457806355f804b3146103a7578063572b6c05146103ba5780636352211e146103cd57600080fd5b80632e1a7d4d146103125780632f2ff15d146103255780632f745c591461033857806336568abe1461034b57806338e21cce1461035e57600080fd5b806301ffc9a71461021757806306fdde031461023f57806307a974fc14610254578063081812fc14610277578063095ea7b3146102a25780631653c39a146102b757806318160ddd146102ca57806323b872dd146102dc578063248a9ca3146102ef575b600080fd5b61022a610225366004612319565b610519565b60405190151581526020015b60405180910390f35b61024761052a565b604051610236919061238e565b61022a6102623660046123a1565b600b6020526000908152604090205460ff1681565b61028a6102853660046123a1565b6105bc565b6040516001600160a01b039091168152602001610236565b6102b56102b03660046123d6565b610649565b005b6102476102c53660046123a1565b61076c565b6009545b604051908152602001610236565b6102b56102ea366004612400565b61079d565b6102ce6102fd3660046123a1565b60009081526020819052604090206001015490565b6102b56103203660046123a1565b6107d5565b6102b561033336600461243c565b61083a565b6102ce6103463660046123d6565b610867565b6102b561035936600461243c565b6108fd565b61022a61036c366004612468565b600f6020526000908152604090205460ff1681565b6102b561038f366004612400565b61098b565b6102ce6103a23660046123a1565b6109a6565b6102b56103b53660046124cb565b610a39565b61022a6103c8366004612468565b610a8e565b61028a6103db3660046123a1565b610ac0565b6102b5610b37565b610247610c16565b6102ce6103fe366004612468565b610ca4565b6102b5610d2b565b600c546001600160a01b031661028a565b61022a61042a36600461243c565b610d80565b6102ce601481565b610247610da9565b6102b561044d36600461250c565b610db8565b6102ce600081565b6102b5610468366004612580565b610f69565b6102ce7f8f4f2da22e8ac8f11e15f9fc141cddbb5deea8800186560abb6e68c5496619a981565b6102b56104a23660046123a1565b610f7b565b6102b56104b5366004612629565b6110a9565b6102476104c83660046123a1565b6110e8565b6102b56104db3660046126d3565b6111b3565b6102b56104ee36600461243c565b6112c0565b61022a610501366004612725565b6112e8565b6102b5610514366004612468565b611316565b6000610524826113f8565b92915050565b6060600180546105399061274f565b80601f01602080910402602001604051908101604052809291908181526020018280546105659061274f565b80156105b25780601f10610587576101008083540402835291602001916105b2565b820191906000526020600020905b81548152906001019060200180831161059557829003601f168201915b5050505050905090565b60006105c782611403565b61062d5760405162461bcd60e51b815260206004820152602c60248201527f4552433732313a20617070726f76656420717565727920666f72206e6f6e657860448201526b34b9ba32b73a103a37b5b2b760a11b60648201526084015b60405180910390fd5b506000908152600560205260409020546001600160a01b031690565b600061065482610ac0565b9050806001600160a01b0316836001600160a01b031614156106c25760405162461bcd60e51b815260206004820152602160248201527f4552433732313a20617070726f76616c20746f2063757272656e74206f776e656044820152603960f91b6064820152608401610624565b806001600160a01b03166106d4611420565b6001600160a01b031614806106f057506106f081610501611420565b61075d5760405162461bcd60e51b815260206004820152603860248201527f4552433732313a20617070726f76652063616c6c6572206973206e6f74206f776044820152771b995c881b9bdc88185c1c1c9bdd995908199bdc88185b1b60421b6064820152608401610624565b610767838361142a565b505050565b6060610777826110e8565b604051602001610787919061238e565b6040516020818303038152906040529050919050565b6107ae6107a8611420565b82611498565b6107ca5760405162461bcd60e51b81526004016106249061278a565b610767838383611562565b6107de81610ac0565b6001600160a01b03166107ef611420565b6001600160a01b0316146108155760405162461bcd60e51b8152600401610624906127db565b6000818152600b60205260409020805460ff19166001179055610837816116f7565b50565b60008281526020819052604090206001015461085d81610858611420565b61178c565b61076783836117f0565b600061087283610ca4565b82106108d45760405162461bcd60e51b815260206004820152602b60248201527f455243373231456e756d657261626c653a206f776e657220696e646578206f7560448201526a74206f6620626f756e647360a81b6064820152608401610624565b506001600160a01b03919091166000908152600760209081526040808320938352929052205490565b610905611420565b6001600160a01b0316816001600160a01b03161461097d5760405162461bcd60e51b815260206004820152602f60248201527f416363657373436f6e74726f6c3a2063616e206f6e6c792072656e6f756e636560448201526e103937b632b9903337b91039b2b63360891b6064820152608401610624565b6109878282611875565b5050565b610767838383604051806020016040528060008152506110a9565b60006109b160095490565b8210610a145760405162461bcd60e51b815260206004820152602c60248201527f455243373231456e756d657261626c653a20676c6f62616c20696e646578206f60448201526b7574206f6620626f756e647360a01b6064820152608401610624565b60098281548110610a2757610a27612823565b90600052602060002001549050919050565b610a41611420565b6001600160a01b0316610a5c600c546001600160a01b031690565b6001600160a01b031614610a825760405162461bcd60e51b815260040161062490612839565b610767600e838361226a565b7f00000000000000000000000000000000000000000000000000000000000000006001600160a01b0390811691161490565b6000818152600360205260408120546001600160a01b0316806105245760405162461bcd60e51b815260206004820152602960248201527f4552433732313a206f776e657220717565727920666f72206e6f6e657869737460448201526832b73a103a37b5b2b760b91b6064820152608401610624565b600f6000610b43611420565b6001600160a01b0316815260208101919091526040016000205460ff1615610bb95760405162461bcd60e51b8152602060048201526024808201527f4f6e6c79206f6e65206d696e74207065722077616c6c657420697320616c6c6f6044820152633bb2b21760e11b6064820152608401610624565b6001600f6000610bc7611420565b6001600160a01b031681526020810191909152604001600020805460ff1916911515919091179055600d805460010190556000610c03600d5490565b9050610837610c10611420565b826118f8565b600e8054610c239061274f565b80601f0160208091040260200160405190810160405280929190818152602001828054610c4f9061274f565b8015610c9c5780601f10610c7157610100808354040283529160200191610c9c565b820191906000526020600020905b815481529060010190602001808311610c7f57829003601f168201915b505050505081565b60006001600160a01b038216610d0f5760405162461bcd60e51b815260206004820152602a60248201527f4552433732313a2062616c616e636520717565727920666f7220746865207a65604482015269726f206164647265737360b01b6064820152608401610624565b506001600160a01b031660009081526004602052604090205490565b610d33611420565b6001600160a01b0316610d4e600c546001600160a01b031690565b6001600160a01b031614610d745760405162461bcd60e51b815260040161062490612839565b610d7e6000611912565b565b6000918252602082815260408084206001600160a01b0393909316845291905290205460ff1690565b6060600280546105399061274f565b806014811115610e1b5760405162461bcd60e51b815260206004820152602860248201527f4368696c644d696e7461626c654552433732313a20455843454544535f42415460448201526710d217d31253525560c21b6064820152608401610624565b60005b81811015610f19576000848483818110610e3a57610e3a612823565b905060200201359050610e4c81610ac0565b6001600160a01b0316610e5d611420565b6001600160a01b03161481604051602001610eb691907f4368696c644d696e7461626c654552433732313a20494e56414c49445f544f4b815268022a72fa7aba722a9160bd1b6020820152602981019190915260490190565b60405160208183030381529060405290610ee35760405162461bcd60e51b8152600401610624919061238e565b506000818152600b60205260409020805460ff19166001179055610f06816116f7565b5080610f1181612884565b915050610e1e565b50610f22611420565b6001600160a01b03167ff871896b17e9cb7a64941c62c188a4f5c621b86800e3d15452ece01ce56073df8484604051610f5c92919061289f565b60405180910390a2505050565b610987610f74611420565b8383611964565b610f8481610ac0565b6001600160a01b0316610f95611420565b6001600160a01b031614610fbb5760405162461bcd60e51b8152600401610624906127db565b6000818152600b60205260408120805460ff191660011790558190610fdf82610ac0565b6001600160a01b03167ff94915c6d1fd521cee85359239227480c7e8776d7caf1fc3bacad5c269b66a14306001600160a01b0316631653c39a866040518263ffffffff1660e01b815260040161103791815260200190565b60006040518083038186803b15801561104f57600080fd5b505afa158015611063573d6000803e3d6000fd5b505050506040513d6000823e601f3d908101601f1916820160405261108b91908101906128db565b604051611098919061238e565b60405180910390a4610837816116f7565b6110ba6110b4611420565b83611498565b6110d65760405162461bcd60e51b81526004016106249061278a565b6110e284848484611a2f565b50505050565b60606110f382611403565b6111575760405162461bcd60e51b815260206004820152602f60248201527f4552433732314d657461646174613a2055524920717565727920666f72206e6f60448201526e3732bc34b9ba32b73a103a37b5b2b760891b6064820152608401610624565b6000611161611a62565b9050600081511161118157604051806020016040528060008152506111ac565b8061118b84611a71565b60405160200161119c929190612951565b6040516020818303038152906040525b9392505050565b7f8f4f2da22e8ac8f11e15f9fc141cddbb5deea8800186560abb6e68c5496619a96111e081610858611420565b602082141561121f5760006111f7838501856123a1565b6000818152600b60205260409020805460ff19169055905061121985826118f8565b506110e2565b600061122d83850185612980565b805190915060005b818110156112b7576000600b600085848151811061125557611255612823565b6020026020010151815260200190815260200160002060006101000a81548160ff0219169083151502179055506112a58784838151811061129857611298612823565b60200260200101516118f8565b806112af81612884565b915050611235565b50505050505050565b6000828152602081905260409020600101546112de81610858611420565b6107678383611875565b6001600160a01b03918216600090815260066020908152604080832093909416825291909152205460ff1690565b61131e611420565b6001600160a01b0316611339600c546001600160a01b031690565b6001600160a01b03161461135f5760405162461bcd60e51b815260040161062490612839565b6001600160a01b0381166113c45760405162461bcd60e51b815260206004820152602660248201527f4f776e61626c653a206e6577206f776e657220697320746865207a65726f206160448201526564647265737360d01b6064820152608401610624565b61083781611912565b60006113d833610a8e565b156113ea575060131936013560601c90565b503390565b905090565b3390565b600061052482611b6e565b6000908152600360205260409020546001600160a01b0316151590565b60006113ef6113cd565b600081815260056020526040902080546001600160a01b0319166001600160a01b038416908117909155819061145f82610ac0565b6001600160a01b03167f8c5be1e5ebec7d5bd14f71427d1e84f3dd0314c0f7b2291e5b200ac8c7c3b92560405160405180910390a45050565b60006114a382611403565b6115045760405162461bcd60e51b815260206004820152602c60248201527f4552433732313a206f70657261746f7220717565727920666f72206e6f6e657860448201526b34b9ba32b73a103a37b5b2b760a11b6064820152608401610624565b600061150f83610ac0565b9050806001600160a01b0316846001600160a01b0316148061154a5750836001600160a01b031661153f846105bc565b6001600160a01b0316145b8061155a575061155a81856112e8565b949350505050565b826001600160a01b031661157582610ac0565b6001600160a01b0316146115d95760405162461bcd60e51b815260206004820152602560248201527f4552433732313a207472616e736665722066726f6d20696e636f72726563742060448201526437bbb732b960d91b6064820152608401610624565b6001600160a01b03821661163b5760405162461bcd60e51b8152602060048201526024808201527f4552433732313a207472616e7366657220746f20746865207a65726f206164646044820152637265737360e01b6064820152608401610624565b611646838383611b93565b61165160008261142a565b6001600160a01b038316600090815260046020526040812080546001929061167a908490612a25565b90915550506001600160a01b03821660009081526004602052604081208054600192906116a8908490612a3c565b909155505060008181526003602052604080822080546001600160a01b0319166001600160a01b038681169182179092559151849391871691600080516020612bfa83398151915291a4505050565b600061170282610ac0565b905061171081600084611b93565b61171b60008361142a565b6001600160a01b0381166000908152600460205260408120805460019290611744908490612a25565b909155505060008281526003602052604080822080546001600160a01b0319169055518391906001600160a01b03841690600080516020612bfa833981519152908390a45050565b6117968282610d80565b610987576117ae816001600160a01b03166014611b9e565b6117b9836020611b9e565b6040516020016117ca929190612a54565b60408051601f198184030181529082905262461bcd60e51b82526106249160040161238e565b6117fa8282610d80565b610987576000828152602081815260408083206001600160a01b03851684529091529020805460ff19166001179055611831611420565b6001600160a01b0316816001600160a01b0316837f2f8788117e7eff1d82e926ec794901d17c78024a50270940304540a733656f0d60405160405180910390a45050565b61187f8282610d80565b15610987576000828152602081815260408083206001600160a01b03851684529091529020805460ff191690556118b4611420565b6001600160a01b0316816001600160a01b0316837ff6391f5c32d9c69d2a47ea670b442974b53935d1edc7fd64eb21e047a839171b60405160405180910390a45050565b610987828260405180602001604052806000815250611d39565b600c80546001600160a01b038381166001600160a01b0319831681179093556040519116919082907f8be0079c531659141344cd1fd0a4f28419497f9722a3daafe3b4186f6b6457e090600090a35050565b816001600160a01b0316836001600160a01b031614156119c25760405162461bcd60e51b815260206004820152601960248201527822a9219b99189d1030b8383937bb32903a379031b0b63632b960391b6044820152606401610624565b6001600160a01b03838116600081815260066020908152604080832094871680845294825291829020805460ff191686151590811790915591519182527f17307eab39ab6107e8899845ad3d59bd9653f200f220920489ca2b5937696c31910160405180910390a3505050565b611a3a848484611562565b611a4684848484611d6c565b6110e25760405162461bcd60e51b815260040161062490612ac3565b6060600e80546105399061274f565b606081611a955750506040805180820190915260018152600360fc1b602082015290565b8160005b8115611abf5780611aa981612884565b9150611ab89050600a83612b2b565b9150611a99565b6000816001600160401b03811115611ad957611ad96125bc565b6040519080825280601f01601f191660200182016040528015611b03576020820181803683370190505b5090505b841561155a57611b18600183612a25565b9150611b25600a86612b3f565b611b30906030612a3c565b60f81b818381518110611b4557611b45612823565b60200101906001600160f81b031916908160001a905350611b67600a86612b2b565b9450611b07565b60006001600160e01b0319821663780e9d6360e01b1480610524575061052482611e80565b610767838383611ec0565b60606000611bad836002612b53565b611bb8906002612a3c565b6001600160401b03811115611bcf57611bcf6125bc565b6040519080825280601f01601f191660200182016040528015611bf9576020820181803683370190505b509050600360fc1b81600081518110611c1457611c14612823565b60200101906001600160f81b031916908160001a905350600f60fb1b81600181518110611c4357611c43612823565b60200101906001600160f81b031916908160001a9053506000611c67846002612b53565b611c72906001612a3c565b90505b6001811115611cea576f181899199a1a9b1b9c1cb0b131b232b360811b85600f1660108110611ca657611ca6612823565b1a60f81b828281518110611cbc57611cbc612823565b60200101906001600160f81b031916908160001a90535060049490941c93611ce381612b72565b9050611c75565b5083156111ac5760405162461bcd60e51b815260206004820181905260248201527f537472696e67733a20686578206c656e67746820696e73756666696369656e746044820152606401610624565b611d438383611f78565b611d506000848484611d6c565b6107675760405162461bcd60e51b815260040161062490612ac3565b60006001600160a01b0384163b15611e7557836001600160a01b031663150b7a02611d95611420565b8786866040518563ffffffff1660e01b8152600401611db79493929190612b89565b602060405180830381600087803b158015611dd157600080fd5b505af1925050508015611e01575060408051601f3d908101601f19168201909252611dfe91810190612bc6565b60015b611e5b573d808015611e2f576040519150601f19603f3d011682016040523d82523d6000602084013e611e34565b606091505b508051611e535760405162461bcd60e51b815260040161062490612ac3565b805181602001fd5b6001600160e01b031916630a85bd0160e11b14905061155a565b506001949350505050565b60006001600160e01b031982166380ac58cd60e01b1480611eb157506001600160e01b03198216635b5e139f60e01b145b806105245750610524826120a5565b6001600160a01b038316611f1b57611f1681600980546000838152600a60205260408120829055600182018355919091527f6e1540171b6c0c960b71a7020d9f60077f6af931a8bbf590da0223dacf75c7af0155565b611f3e565b816001600160a01b0316836001600160a01b031614611f3e57611f3e83826120da565b6001600160a01b038216611f555761076781612177565b826001600160a01b0316826001600160a01b031614610767576107678282612226565b6001600160a01b038216611fce5760405162461bcd60e51b815260206004820181905260248201527f4552433732313a206d696e7420746f20746865207a65726f20616464726573736044820152606401610624565b611fd781611403565b156120245760405162461bcd60e51b815260206004820152601c60248201527f4552433732313a20746f6b656e20616c7265616479206d696e746564000000006044820152606401610624565b61203060008383611b93565b6001600160a01b0382166000908152600460205260408120805460019290612059908490612a3c565b909155505060008181526003602052604080822080546001600160a01b0319166001600160a01b0386169081179091559051839290600080516020612bfa833981519152908290a45050565b60006001600160e01b03198216637965db0b60e01b148061052457506301ffc9a760e01b6001600160e01b0319831614610524565b600060016120e784610ca4565b6120f19190612a25565b600083815260086020526040902054909150808214612144576001600160a01b03841660009081526007602090815260408083208584528252808320548484528184208190558352600890915290208190555b5060009182526008602090815260408084208490556001600160a01b039094168352600781528383209183525290812055565b60095460009061218990600190612a25565b6000838152600a6020526040812054600980549394509092849081106121b1576121b1612823565b9060005260206000200154905080600983815481106121d2576121d2612823565b6000918252602080832090910192909255828152600a9091526040808220849055858252812055600980548061220a5761220a612be3565b6001900381819060005260206000200160009055905550505050565b600061223183610ca4565b6001600160a01b039093166000908152600760209081526040808320868452825280832085905593825260089052919091209190915550565b8280546122769061274f565b90600052602060002090601f01602090048101928261229857600085556122de565b82601f106122b15782800160ff198235161785556122de565b828001600101855582156122de579182015b828111156122de5782358255916020019190600101906122c3565b506122ea9291506122ee565b5090565b5b808211156122ea57600081556001016122ef565b6001600160e01b03198116811461083757600080fd5b60006020828403121561232b57600080fd5b81356111ac81612303565b60005b83811015612351578181015183820152602001612339565b838111156110e25750506000910152565b6000815180845261237a816020860160208601612336565b601f01601f19169290920160200192915050565b6020815260006111ac6020830184612362565b6000602082840312156123b357600080fd5b5035919050565b80356001600160a01b03811681146123d157600080fd5b919050565b600080604083850312156123e957600080fd5b6123f2836123ba565b946020939093013593505050565b60008060006060848603121561241557600080fd5b61241e846123ba565b925061242c602085016123ba565b9150604084013590509250925092565b6000806040838503121561244f57600080fd5b8235915061245f602084016123ba565b90509250929050565b60006020828403121561247a57600080fd5b6111ac826123ba565b60008083601f84011261249557600080fd5b5081356001600160401b038111156124ac57600080fd5b6020830191508360208285010111156124c457600080fd5b9250929050565b600080602083850312156124de57600080fd5b82356001600160401b038111156124f457600080fd5b61250085828601612483565b90969095509350505050565b6000806020838503121561251f57600080fd5b82356001600160401b038082111561253657600080fd5b818501915085601f83011261254a57600080fd5b81358181111561255957600080fd5b8660208260051b850101111561256e57600080fd5b60209290920196919550909350505050565b6000806040838503121561259357600080fd5b61259c836123ba565b9150602083013580151581146125b157600080fd5b809150509250929050565b634e487b7160e01b600052604160045260246000fd5b604051601f8201601f191681016001600160401b03811182821017156125fa576125fa6125bc565b604052919050565b60006001600160401b0382111561261b5761261b6125bc565b50601f01601f191660200190565b6000806000806080858703121561263f57600080fd5b612648856123ba565b9350612656602086016123ba565b92506040850135915060608501356001600160401b0381111561267857600080fd5b8501601f8101871361268957600080fd5b803561269c61269782612602565b6125d2565b8181528860208385010111156126b157600080fd5b8160208401602083013760006020838301015280935050505092959194509250565b6000806000604084860312156126e857600080fd5b6126f1846123ba565b925060208401356001600160401b0381111561270c57600080fd5b61271886828701612483565b9497909650939450505050565b6000806040838503121561273857600080fd5b612741836123ba565b915061245f602084016123ba565b600181811c9082168061276357607f821691505b6020821081141561278457634e487b7160e01b600052602260045260246000fd5b50919050565b60208082526031908201527f4552433732313a207472616e736665722063616c6c6572206973206e6f74206f6040820152701ddb995c881b9bdc88185c1c1c9bdd9959607a1b606082015260800190565b60208082526028908201527f4368696c644d696e7461626c654552433732313a20494e56414c49445f544f4b60408201526722a72fa7aba722a960c11b606082015260800190565b634e487b7160e01b600052603260045260246000fd5b6020808252818101527f4f776e61626c653a2063616c6c6572206973206e6f7420746865206f776e6572604082015260600190565b634e487b7160e01b600052601160045260246000fd5b60006000198214156128985761289861286e565b5060010190565b6020808252810182905260006001600160fb1b038311156128bf57600080fd5b8260051b80856040850137600092016040019182525092915050565b6000602082840312156128ed57600080fd5b81516001600160401b0381111561290357600080fd5b8201601f8101841361291457600080fd5b805161292261269782612602565b81815285602083850101111561293757600080fd5b612948826020830160208601612336565b95945050505050565b60008351612963818460208801612336565b835190830190612977818360208801612336565b01949350505050565b6000602080838503121561299357600080fd5b82356001600160401b03808211156129aa57600080fd5b818501915085601f8301126129be57600080fd5b8135818111156129d0576129d06125bc565b8060051b91506129e18483016125d2565b81815291830184019184810190888411156129fb57600080fd5b938501935b83851015612a1957843582529385019390850190612a00565b98975050505050505050565b600082821015612a3757612a3761286e565b500390565b60008219821115612a4f57612a4f61286e565b500190565b76020b1b1b2b9b9a1b7b73a3937b61d1030b1b1b7bab73a1604d1b815260008351612a86816017850160208801612336565b7001034b99036b4b9b9b4b733903937b6329607d1b6017918401918201528351612ab7816028840160208801612336565b01602801949350505050565b60208082526032908201527f4552433732313a207472616e7366657220746f206e6f6e20455243373231526560408201527131b2b4bb32b91034b6b83632b6b2b73a32b960711b606082015260800190565b634e487b7160e01b600052601260045260246000fd5b600082612b3a57612b3a612b15565b500490565b600082612b4e57612b4e612b15565b500690565b6000816000190483118215151615612b6d57612b6d61286e565b500290565b600081612b8157612b8161286e565b506000190190565b6001600160a01b0385811682528416602082015260408101839052608060608201819052600090612bbc90830184612362565b9695505050505050565b600060208284031215612bd857600080fd5b81516111ac81612303565b634e487b7160e01b600052603160045260246000fdfeddf252ad1be2c89b69c2b068fc378daa952ba7f163c4a11628f55a4df523b3efa264697066735822122040e3f7c00417632fcc63ad936c4ba78454aab6b247a981652f66f04495d6bacc64736f6c63430008090033",
  "linkReferences": {},
  "deployedLinkReferences": {}
}